{
  "address": "0xda215756d40E12cD94B015E098e9F052697DB946",
  "abi": [
    {
      "inputs": [
        {
          "internalType": "address",
          "name": "_owner",
          "type": "address"
        }
      ],
      "stateMutability": "nonpayable",
      "type": "constructor"
    },
    {
      "inputs": [
        {
          "internalType": "bytes32",
          "name": "_id",
          "type": "bytes32"
        },
        {
          "internalType": "address",
          "name": "_author",
          "type": "address"
        }
      ],
      "name": "addBook",
      "outputs": [],
      "stateMutability": "nonpayable",
      "type": "function"
    },
    {
      "inputs": [
        {
          "internalType": "uint256",
          "name": "",
          "type": "uint256"
        }
      ],
      "name": "books",
      "outputs": [
        {
          "internalType": "bytes32",
          "name": "",
          "type": "bytes32"
        }
      ],
      "stateMutability": "view",
      "type": "function"
    },
    {
      "inputs": [
        {
          "internalType": "bytes32",
          "name": "_id",
          "type": "bytes32"
        }
      ],
      "name": "deleteBook",
      "outputs": [],
      "stateMutability": "nonpayable",
      "type": "function"
    },
    {
      "inputs": [
        {
          "internalType": "bytes32",
          "name": "_id",
          "type": "bytes32"
        }
      ],
      "name": "exists",
      "outputs": [
        {
          "internalType": "bool",
          "name": "",
          "type": "bool"
        }
      ],
      "stateMutability": "view",
      "type": "function"
    },
    {
      "inputs": [
        {
          "internalType": "bytes32",
          "name": "_id",
          "type": "bytes32"
        }
      ],
      "name": "getAuthor",
      "outputs": [
        {
          "internalType": "address",
          "name": "bookAuthor",
          "type": "address"
        }
      ],
      "stateMutability": "view",
      "type": "function"
    },
    {
      "inputs": [
        {
          "internalType": "address",
          "name": "_author",
          "type": "address"
        }
      ],
      "name": "getAuthorBooks",
      "outputs": [
        {
          "internalType": "bytes32[10]",
          "name": "ids",
          "type": "bytes32[10]"
        }
      ],
      "stateMutability": "view",
      "type": "function"
    },
    {
      "inputs": [
        {
          "internalType": "address",
          "name": "_author",
          "type": "address"
        }
      ],
      "name": "numAuthorBooks",
      "outputs": [
        {
          "internalType": "uint256",
          "name": "num",
          "type": "uint256"
        }
      ],
      "stateMutability": "view",
      "type": "function"
    },
    {
      "inputs": [],
      "name": "owner",
      "outputs": [
        {
          "internalType": "address",
          "name": "",
          "type": "address"
        }
      ],
      "stateMutability": "view",
      "type": "function"
    }
  ],
  "transactionHash": "0xe24517b1b0d689a8692de68ba6c50c57dc9a17a3980cf5555502ba411e63a3f2",
  "args": [
    "0x92D73a8FB635Fd7C7B241Db4BbD7682ecFF8Bc62"
  ],
  "numDeployments": 1,
  "solcInputHash": "691c4c929885cb587ae0685934a0cc4f",
  "bytecode": "0x60806040523480156200001157600080fd5b5060405162001719380380620017198339818101604052810190620000379190620001f0565b62000067604051806060016040528060288152602001620016f16028913982620000b760201b620009e71760201c565b600a60038190555080600560006101000a81548173ffffffffffffffffffffffffffffffffffffffff021916908373ffffffffffffffffffffffffffffffffffffffff160217905550506200030b565b620001598282604051602401620000d0929190620002d7565b6040516020818303038152906040527f319af333000000000000000000000000000000000000000000000000000000007bffffffffffffffffffffffffffffffffffffffffffffffffffffffff19166020820180517bffffffffffffffffffffffffffffffffffffffffffffffffffffffff83818316178352505050506200015d60201b60201c565b5050565b60008151905060006a636f6e736f6c652e6c6f679050602083016000808483855afa5050505050565b600080fd5b600073ffffffffffffffffffffffffffffffffffffffff82169050919050565b6000620001b8826200018b565b9050919050565b620001ca81620001ab565b8114620001d657600080fd5b50565b600081519050620001ea81620001bf565b92915050565b60006020828403121562000209576200020862000186565b5b60006200021984828501620001d9565b91505092915050565b600081519050919050565b600082825260208201905092915050565b60005b838110156200025e57808201518184015260208101905062000241565b838111156200026e576000848401525b50505050565b6000601f19601f8301169050919050565b6000620002928262000222565b6200029e81856200022d565b9350620002b08185602086016200023e565b620002bb8162000274565b840191505092915050565b620002d181620001ab565b82525050565b60006040820190508181036000830152620002f3818562000285565b9050620003046020830184620002c6565b9392505050565b6113d6806200031b6000396000f3fe608060405234801561001057600080fd5b50600436106100885760003560e01c8063691d1c281161005b578063691d1c28146101395780636b6dda5b146101695780638da5cb5b14610185578063a72877a6146101a357610088565b80631be40c601461008d57806338a699a4146100bd57806363dcd599146100ed5780636874404614610109575b600080fd5b6100a760048036038101906100a29190610bce565b6101d3565b6040516100b49190610c14565b60405180910390f35b6100d760048036038101906100d29190610c65565b61021c565b6040516100e49190610cad565b60405180910390f35b61010760048036038101906101029190610c65565b610246565b005b610123600480360381019061011e9190610cf4565b6104bc565b6040516101309190610d30565b60405180910390f35b610153600480360381019061014e9190610c65565b6104e0565b6040516101609190610d5a565b60405180910390f35b610183600480360381019061017e9190610d75565b61057d565b005b61018d610858565b60405161019a9190610d5a565b60405180910390f35b6101bd60048036038101906101b89190610bce565b61087e565b6040516101ca9190610e60565b60405180910390f35b6000600460008373ffffffffffffffffffffffffffffffffffffffff1673ffffffffffffffffffffffffffffffffffffffff168152602001908152602001600020549050919050565b60006002600083815260200190815260200160002060009054906101000a900460ff169050919050565b600560009054906101000a900473ffffffffffffffffffffffffffffffffffffffff1673ffffffffffffffffffffffffffffffffffffffff163373ffffffffffffffffffffffffffffffffffffffff16146102d6576040517f08c379a00000000000000000000000000000000000000000000000000000000081526004016102cd90610ed9565b60405180910390fd5b600115156002600083815260200190815260200160002060009054906101000a900460ff1615151461033d576040517f08c379a000000000000000000000000000000000000000000000000000000000815260040161033490610f6b565b60405180910390fd5b60005b6000805490508110156103a957816000828154811061036257610361610f8b565b5b90600052602060002001541415610396576000818154811061038757610386610f8b565b5b90600052602060002001600090555b80806103a190610fe9565b915050610340565b5060006002600083815260200190815260200160002060006101000a81548160ff02191690831515021790555060006001600083815260200190815260200160002060009054906101000a900473ffffffffffffffffffffffffffffffffffffffff16905060006001600084815260200190815260200160002060006101000a81548173ffffffffffffffffffffffffffffffffffffffff021916908373ffffffffffffffffffffffffffffffffffffffff1602179055506001600460008373ffffffffffffffffffffffffffffffffffffffff1673ffffffffffffffffffffffffffffffffffffffff16815260200190815260200160002060008282546104b19190611032565b925050819055505050565b600081815481106104cc57600080fd5b906000526020600020016000915090505481565b60006002600083815260200190815260200160002060009054906101000a900460ff16610542576040517f08c379a0000000000000000000000000000000000000000000000000000000008152600401610539906110d8565b60405180910390fd5b6001600083815260200190815260200160002060009054906101000a900473ffffffffffffffffffffffffffffffffffffffff169050919050565b600560009054906101000a900473ffffffffffffffffffffffffffffffffffffffff1673ffffffffffffffffffffffffffffffffffffffff163373ffffffffffffffffffffffffffffffffffffffff161461060d576040517f08c379a000000000000000000000000000000000000000000000000000000000815260040161060490610ed9565b60405180910390fd5b600015156002600084815260200190815260200160002060009054906101000a900460ff16151514610674576040517f08c379a000000000000000000000000000000000000000000000000000000000815260040161066b90611144565b60405180910390fd5b600354600460008373ffffffffffffffffffffffffffffffffffffffff1673ffffffffffffffffffffffffffffffffffffffff16815260200190815260200160002054106106f7576040517f08c379a00000000000000000000000000000000000000000000000000000000081526004016106ee906111d6565b60405180910390fd5b60008290806001815401808255809150506001900390600052602060002001600090919091909150556001600460008373ffffffffffffffffffffffffffffffffffffffff1673ffffffffffffffffffffffffffffffffffffffff168152602001908152602001600020600082825461077091906111f6565b92505081905550806001600084815260200190815260200160002060006101000a81548173ffffffffffffffffffffffffffffffffffffffff021916908373ffffffffffffffffffffffffffffffffffffffff16021790555060016002600084815260200190815260200160002060006101000a81548160ff0219169083151502179055506108546040518060400160405280601281526020017f54686520626f6f6b20737461747573203d2000000000000000000000000000008152506002600085815260200190815260200160002060009054906101000a900460ff16610a83565b5050565b600560009054906101000a900473ffffffffffffffffffffffffffffffffffffffff1681565b610886610b48565b600073ffffffffffffffffffffffffffffffffffffffff168273ffffffffffffffffffffffffffffffffffffffff1614156108f6576040517f08c379a00000000000000000000000000000000000000000000000000000000081526004016108ed90611298565b60405180910390fd5b6000805b6000805490508110156109e057600080828154811061091c5761091b610f8b565b5b906000526020600020015490508473ffffffffffffffffffffffffffffffffffffffff166001600083815260200190815260200160002060009054906101000a900473ffffffffffffffffffffffffffffffffffffffff1673ffffffffffffffffffffffffffffffffffffffff1614156109cc57808484600a81106109a4576109a3610f8b565b5b6020020181815250506001836109ba91906111f6565b9250600a8314156109cb57506109e0565b5b5080806109d890610fe9565b9150506108fa565b5050919050565b610a7f82826040516024016109fd929190611340565b6040516020818303038152906040527f319af333000000000000000000000000000000000000000000000000000000007bffffffffffffffffffffffffffffffffffffffffffffffffffffffff19166020820180517bffffffffffffffffffffffffffffffffffffffffffffffffffffffff8381831617835250505050610b1f565b5050565b610b1b8282604051602401610a99929190611370565b6040516020818303038152906040527fc3b55635000000000000000000000000000000000000000000000000000000007bffffffffffffffffffffffffffffffffffffffffffffffffffffffff19166020820180517bffffffffffffffffffffffffffffffffffffffffffffffffffffffff8381831617835250505050610b1f565b5050565b60008151905060006a636f6e736f6c652e6c6f679050602083016000808483855afa5050505050565b604051806101400160405280600a90602082028036833780820191505090505090565b600080fd5b600073ffffffffffffffffffffffffffffffffffffffff82169050919050565b6000610b9b82610b70565b9050919050565b610bab81610b90565b8114610bb657600080fd5b50565b600081359050610bc881610ba2565b92915050565b600060208284031215610be457610be3610b6b565b5b6000610bf284828501610bb9565b91505092915050565b6000819050919050565b610c0e81610bfb565b82525050565b6000602082019050610c296000830184610c05565b92915050565b6000819050919050565b610c4281610c2f565b8114610c4d57600080fd5b50565b600081359050610c5f81610c39565b92915050565b600060208284031215610c7b57610c7a610b6b565b5b6000610c8984828501610c50565b91505092915050565b60008115159050919050565b610ca781610c92565b82525050565b6000602082019050610cc26000830184610c9e565b92915050565b610cd181610bfb565b8114610cdc57600080fd5b50565b600081359050610cee81610cc8565b92915050565b600060208284031215610d0a57610d09610b6b565b5b6000610d1884828501610cdf565b91505092915050565b610d2a81610c2f565b82525050565b6000602082019050610d456000830184610d21565b92915050565b610d5481610b90565b82525050565b6000602082019050610d6f6000830184610d4b565b92915050565b60008060408385031215610d8c57610d8b610b6b565b5b6000610d9a85828601610c50565b9250506020610dab85828601610bb9565b9150509250929050565b6000600a9050919050565b600081905092915050565b6000819050919050565b610dde81610c2f565b82525050565b6000610df08383610dd5565b60208301905092915050565b6000602082019050919050565b610e1281610db5565b610e1c8184610dc0565b9250610e2782610dcb565b8060005b83811015610e58578151610e3f8782610de4565b9650610e4a83610dfc565b925050600181019050610e2b565b505050505050565b600061014082019050610e766000830184610e09565b92915050565b600082825260208201905092915050565b7f496e746572616374207769746820726f75746572000000000000000000000000600082015250565b6000610ec3601483610e7c565b9150610ece82610e8d565b602082019050919050565b60006020820190508181036000830152610ef281610eb6565b9050919050565b7f426f6f6b206973206e6f742070726573656e7420696e2074686520706c61746660008201527f6f726d0000000000000000000000000000000000000000000000000000000000602082015250565b6000610f55602383610e7c565b9150610f6082610ef9565b604082019050919050565b60006020820190508181036000830152610f8481610f48565b9050919050565b7f4e487b7100000000000000000000000000000000000000000000000000000000600052603260045260246000fd5b7f4e487b7100000000000000000000000000000000000000000000000000000000600052601160045260246000fd5b6000610ff482610bfb565b91507fffffffffffffffffffffffffffffffffffffffffffffffffffffffffffffffff82141561102757611026610fba565b5b600182019050919050565b600061103d82610bfb565b915061104883610bfb565b92508282101561105b5761105a610fba565b5b828203905092915050565b7f54686520626f6f6b206973206e6f742075706c6f6164656420746f207468652060008201527f706c6174666f726d000000000000000000000000000000000000000000000000602082015250565b60006110c2602883610e7c565b91506110cd82611066565b604082019050919050565b600060208201905081810360008301526110f1816110b5565b9050919050565b7f54686520626f6f6b20697320616c726561647920616464656400000000000000600082015250565b600061112e601983610e7c565b9150611139826110f8565b602082019050919050565b6000602082019050818103600083015261115d81611121565b9050919050565b7f596f75206861766520616c72656164792075706c6f616465642074656e20626f60008201527f6f6b730000000000000000000000000000000000000000000000000000000000602082015250565b60006111c0602383610e7c565b91506111cb82611164565b604082019050919050565b600060208201905081810360008301526111ef816111b3565b9050919050565b600061120182610bfb565b915061120c83610bfb565b9250827fffffffffffffffffffffffffffffffffffffffffffffffffffffffffffffffff0382111561124157611240610fba565b5b828201905092915050565b7f464f5242494444454e2041444452455353000000000000000000000000000000600082015250565b6000611282601183610e7c565b915061128d8261124c565b602082019050919050565b600060208201905081810360008301526112b181611275565b9050919050565b600081519050919050565b60005b838110156112e15780820151818401526020810190506112c6565b838111156112f0576000848401525b50505050565b6000601f19601f8301169050919050565b6000611312826112b8565b61131c8185610e7c565b935061132c8185602086016112c3565b611335816112f6565b840191505092915050565b6000604082019050818103600083015261135a8185611307565b90506113696020830184610d4b565b9392505050565b6000604082019050818103600083015261138a8185611307565b90506113996020830184610c9e565b939250505056fea2646970667358221220da7baa389859dbabab82f599d2ef790c1843eb1565ed93115ae8b1e787029fa264736f6c63430008090033546865206f776e6572206f662074686520426f6f6b20736d61727420636f6e747261637420697320",
  "devdoc": {
    "kind": "dev",
    "methods": {},
    "version": 1
  },
  "userdoc": {
    "kind": "user",
    "methods": {},
    "version": 1
  },
  "storageLayout": {
    "storage": [
      {
        "astId": 8,
        "contract": "contracts/Book.sol:Book",
        "label": "books",
        "offset": 0,
        "slot": "0",
        "type": "t_array(t_bytes32)dyn_storage"
      },
      {
        "astId": 12,
        "contract": "contracts/Book.sol:Book",
        "label": "author",
        "offset": 0,
        "slot": "1",
        "type": "t_mapping(t_bytes32,t_address)"
      },
      {
        "astId": 16,
        "contract": "contracts/Book.sol:Book",
        "label": "present",
        "offset": 0,
        "slot": "2",
        "type": "t_mapping(t_bytes32,t_bool)"
      },
      {
        "astId": 18,
        "contract": "contracts/Book.sol:Book",
        "label": "MAX_BOOKS",
        "offset": 0,
        "slot": "3",
        "type": "t_uint256"
      },
      {
        "astId": 22,
        "contract": "contracts/Book.sol:Book",
        "label": "numBooks",
        "offset": 0,
        "slot": "4",
        "type": "t_mapping(t_address,t_uint256)"
      },
      {
        "astId": 24,
        "contract": "contracts/Book.sol:Book",
        "label": "owner",
        "offset": 0,
        "slot": "5",
        "type": "t_address"
      }
    ],
    "types": {
      "t_address": {
        "encoding": "inplace",
        "label": "address",
        "numberOfBytes": "20"
      },
      "t_array(t_bytes32)dyn_storage": {
        "base": "t_bytes32",
        "encoding": "dynamic_array",
        "label": "bytes32[]",
        "numberOfBytes": "32"
      },
      "t_bool": {
        "encoding": "inplace",
        "label": "bool",
        "numberOfBytes": "1"
      },
      "t_bytes32": {
        "encoding": "inplace",
        "label": "bytes32",
        "numberOfBytes": "32"
      },
      "t_mapping(t_address,t_uint256)": {
        "encoding": "mapping",
        "key": "t_address",
        "label": "mapping(address => uint256)",
        "numberOfBytes": "32",
        "value": "t_uint256"
      },
      "t_mapping(t_bytes32,t_address)": {
        "encoding": "mapping",
        "key": "t_bytes32",
        "label": "mapping(bytes32 => address)",
        "numberOfBytes": "32",
        "value": "t_address"
      },
      "t_mapping(t_bytes32,t_bool)": {
        "encoding": "mapping",
        "key": "t_bytes32",
        "label": "mapping(bytes32 => bool)",
        "numberOfBytes": "32",
        "value": "t_bool"
      },
      "t_uint256": {
        "encoding": "inplace",
        "label": "uint256",
        "numberOfBytes": "32"
      }
    }
  }
}