{
  "address": "0xD58337730e59E96CA17E7E278812e5a59b659d3b",
  "abi": [
    {
      "inputs": [
        {
          "internalType": "address",
          "name": "_owner",
          "type": "address"
        }
      ],
      "stateMutability": "nonpayable",
      "type": "constructor"
    },
    {
      "inputs": [
        {
          "internalType": "bytes32",
          "name": "_id",
          "type": "bytes32"
        },
        {
          "internalType": "address",
          "name": "_contributor",
          "type": "address"
        },
        {
          "internalType": "uint256",
          "name": "_amt",
          "type": "uint256"
        }
      ],
      "name": "addContribution",
      "outputs": [],
      "stateMutability": "nonpayable",
      "type": "function"
    },
    {
      "inputs": [
        {
          "internalType": "bytes32",
          "name": "",
          "type": "bytes32"
        },
        {
          "internalType": "uint256",
          "name": "",
          "type": "uint256"
        },
        {
          "internalType": "address",
          "name": "",
          "type": "address"
        }
      ],
      "name": "authorWithdrawals",
      "outputs": [
        {
          "internalType": "bool",
          "name": "",
          "type": "bool"
        }
      ],
      "stateMutability": "view",
      "type": "function"
    },
    {
      "inputs": [
        {
          "internalType": "bytes32",
          "name": "_id",
          "type": "bytes32"
        },
        {
          "internalType": "uint256",
          "name": "_price",
          "type": "uint256"
        },
        {
          "internalType": "address",
          "name": "_author",
          "type": "address"
        }
      ],
      "name": "createPool",
      "outputs": [],
      "stateMutability": "nonpayable",
      "type": "function"
    },
    {
      "inputs": [
        {
          "internalType": "bytes32",
          "name": "_id",
          "type": "bytes32"
        }
      ],
      "name": "currentPhase",
      "outputs": [
        {
          "internalType": "uint256",
          "name": "",
          "type": "uint256"
        }
      ],
      "stateMutability": "view",
      "type": "function"
    },
    {
      "inputs": [
        {
          "internalType": "bytes32",
          "name": "_id",
          "type": "bytes32"
        },
        {
          "internalType": "address",
          "name": "_author",
          "type": "address"
        }
      ],
      "name": "deletePool",
      "outputs": [],
      "stateMutability": "nonpayable",
      "type": "function"
    },
    {
      "inputs": [
        {
          "internalType": "bytes32",
          "name": "_id",
          "type": "bytes32"
        }
      ],
      "name": "getAuthorFee",
      "outputs": [
        {
          "internalType": "uint256",
          "name": "",
          "type": "uint256"
        }
      ],
      "stateMutability": "view",
      "type": "function"
    },
    {
      "inputs": [
        {
          "internalType": "bytes32",
          "name": "_id",
          "type": "bytes32"
        },
        {
          "internalType": "uint256",
          "name": "_phase",
          "type": "uint256"
        },
        {
          "internalType": "address",
          "name": "_author",
          "type": "address"
        }
      ],
      "name": "getAuthorWithdrawn",
      "outputs": [
        {
          "internalType": "bool",
          "name": "",
          "type": "bool"
        }
      ],
      "stateMutability": "view",
      "type": "function"
    },
    {
      "inputs": [],
      "name": "owner",
      "outputs": [
        {
          "internalType": "address",
          "name": "",
          "type": "address"
        }
      ],
      "stateMutability": "view",
      "type": "function"
    },
    {
      "inputs": [
        {
          "internalType": "bytes32",
          "name": "",
          "type": "bytes32"
        }
      ],
      "name": "pools",
      "outputs": [
        {
          "internalType": "address",
          "name": "owner",
          "type": "address"
        },
        {
          "internalType": "uint256",
          "name": "numParticipants",
          "type": "uint256"
        },
        {
          "internalType": "uint256",
          "name": "pricePerContribution",
          "type": "uint256"
        },
        {
          "internalType": "uint256",
          "name": "totalContribution",
          "type": "uint256"
        },
        {
          "internalType": "uint256",
          "name": "bookPrice",
          "type": "uint256"
        },
        {
          "internalType": "uint256",
          "name": "phase",
          "type": "uint256"
        },
        {
          "internalType": "bool",
          "name": "created",
          "type": "bool"
        }
      ],
      "stateMutability": "view",
      "type": "function"
    },
    {
      "inputs": [
        {
          "internalType": "bytes32",
          "name": "_id",
          "type": "bytes32"
        },
        {
          "internalType": "uint256",
          "name": "_phase",
          "type": "uint256"
        },
        {
          "internalType": "address",
          "name": "_contributor",
          "type": "address"
        }
      ],
      "name": "redeemBook",
      "outputs": [
        {
          "internalType": "bool",
          "name": "status",
          "type": "bool"
        }
      ],
      "stateMutability": "nonpayable",
      "type": "function"
    },
    {
      "inputs": [
        {
          "internalType": "bytes32",
          "name": "",
          "type": "bytes32"
        },
        {
          "internalType": "uint256",
          "name": "",
          "type": "uint256"
        },
        {
          "internalType": "address",
          "name": "",
          "type": "address"
        }
      ],
      "name": "redeemed",
      "outputs": [
        {
          "internalType": "bool",
          "name": "",
          "type": "bool"
        }
      ],
      "stateMutability": "view",
      "type": "function"
    },
    {
      "inputs": [
        {
          "internalType": "bytes32",
          "name": "_id",
          "type": "bytes32"
        },
        {
          "internalType": "uint256",
          "name": "_phase",
          "type": "uint256"
        },
        {
          "internalType": "address",
          "name": "_author",
          "type": "address"
        }
      ],
      "name": "setAuthorWithdrawn",
      "outputs": [],
      "stateMutability": "nonpayable",
      "type": "function"
    },
    {
      "inputs": [
        {
          "internalType": "bytes32",
          "name": "_id",
          "type": "bytes32"
        },
        {
          "internalType": "address",
          "name": "_contributor",
          "type": "address"
        }
      ],
      "name": "withdrawContribution",
      "outputs": [
        {
          "internalType": "uint256",
          "name": "amt",
          "type": "uint256"
        }
      ],
      "stateMutability": "nonpayable",
      "type": "function"
    }
  ],
  "transactionHash": "0xf92034e2341d3c9cd967c23be42719c364b0b52d981849e02ee8fe3f11916b13",
  "args": [
    "0x92D73a8FB635Fd7C7B241Db4BbD7682ecFF8Bc62"
  ],
  "numDeployments": 1,
  "solcInputHash": "691c4c929885cb587ae0685934a0cc4f",
  "bytecode": "0x60806040523480156200001157600080fd5b50604051620024d3380380620024d38339818101604052810190620000379190620001e8565b62000067604051806060016040528060218152602001620024b26021913982620000af60201b6200133e1760201c565b80600460006101000a81548173ffffffffffffffffffffffffffffffffffffffff021916908373ffffffffffffffffffffffffffffffffffffffff1602179055505062000303565b620001518282604051602401620000c8929190620002cf565b6040516020818303038152906040527f319af333000000000000000000000000000000000000000000000000000000007bffffffffffffffffffffffffffffffffffffffffffffffffffffffff19166020820180517bffffffffffffffffffffffffffffffffffffffffffffffffffffffff83818316178352505050506200015560201b60201c565b5050565b60008151905060006a636f6e736f6c652e6c6f679050602083016000808483855afa5050505050565b600080fd5b600073ffffffffffffffffffffffffffffffffffffffff82169050919050565b6000620001b08262000183565b9050919050565b620001c281620001a3565b8114620001ce57600080fd5b50565b600081519050620001e281620001b7565b92915050565b6000602082840312156200020157620002006200017e565b5b60006200021184828501620001d1565b91505092915050565b600081519050919050565b600082825260208201905092915050565b60005b838110156200025657808201518184015260208101905062000239565b8381111562000266576000848401525b50505050565b6000601f19601f8301169050919050565b60006200028a826200021a565b62000296818562000225565b9350620002a881856020860162000236565b620002b3816200026c565b840191505092915050565b620002c981620001a3565b82525050565b60006040820190508181036000830152620002eb81856200027d565b9050620002fc6020830184620002be565b9392505050565b61219f80620003136000396000f3fe608060405234801561001057600080fd5b50600436106100cf5760003560e01c80638da5cb5b1161008c578063b5217bb411610066578063b5217bb41461024a578063c5913f9814610280578063ca78ffa6146102b0578063d942b482146102cc576100cf565b80638da5cb5b146101cc5780639047695c146101ea578063ab5b63a41461021a576100cf565b80632f59123c146100d4578063314cac27146100f05780633ed4faaf14610120578063404ef0141461013c57806360e04e811461016c578063808577231461019c575b600080fd5b6100ee60048036038101906100e99190611681565b6102e8565b005b61010a600480360381019061010591906116d4565b6105f1565b6040516101179190611742565b60405180910390f35b61013a600480360381019061013591906116d4565b61062d565b005b6101566004803603810190610151919061175d565b61073c565b60405161016391906117ac565b60405180910390f35b610186600480360381019061018191906116d4565b6109d2565b6040516101939190611742565b60405180910390f35b6101b660048036038101906101b191906117c7565b610a4c565b6040516101c391906117ac565b60405180910390f35b6101d4610acd565b6040516101e19190611803565b60405180910390f35b61020460048036038101906101ff91906117c7565b610af3565b60405161021191906117ac565b60405180910390f35b610234600480360381019061022f91906116d4565b610ba0565b6040516102419190611742565b60405180910390f35b610264600480360381019061025f91906117c7565b610bdc565b604051610277979695949392919061181e565b60405180910390f35b61029a600480360381019061029591906116d4565b610c4b565b6040516102a79190611742565b60405180910390f35b6102ca60048036038101906102c5919061175d565b610f8b565b005b6102e660048036038101906102e191906116d4565b61119c565b005b600460009054906101000a900473ffffffffffffffffffffffffffffffffffffffff1673ffffffffffffffffffffffffffffffffffffffff163373ffffffffffffffffffffffffffffffffffffffff1614610378576040517f08c379a000000000000000000000000000000000000000000000000000000000815260040161036f906118ea565b60405180910390fd5b60008084815260200190815260200160002060060160009054906101000a900460ff166103da576040517f08c379a00000000000000000000000000000000000000000000000000000000081526004016103d190611956565b60405180910390fd5b600080600085815260200190815260200160002090506000816005015490506000151560016000878152602001908152602001600020600083815260200190815260200160002060008673ffffffffffffffffffffffffffffffffffffffff1673ffffffffffffffffffffffffffffffffffffffff16815260200190815260200160002060009054906101000a900460ff161515146104ae576040517f08c379a00000000000000000000000000000000000000000000000000000000081526004016104a5906119c2565b60405180910390fd5b60006104b9866113da565b9050808410156104fe576040517f08c379a00000000000000000000000000000000000000000000000000000000081526004016104f590611a2e565b60405180910390fd5b6001806000888152602001908152602001600020600084815260200190815260200160002060008773ffffffffffffffffffffffffffffffffffffffff1673ffffffffffffffffffffffffffffffffffffffff16815260200190815260200160002060006101000a81548160ff021916908315150217905550826002015483600301600082825461058f9190611a7d565b925050819055508260040154836003015414156105cd576000836003018190555060018360050160008282546105c59190611a7d565b925050819055505b60018360010160008282546105e29190611a7d565b92505081905550505050505050565b6002602052826000526040600020602052816000526040600020602052806000526040600020600092509250509054906101000a900460ff1681565b600460009054906101000a900473ffffffffffffffffffffffffffffffffffffffff1673ffffffffffffffffffffffffffffffffffffffff163373ffffffffffffffffffffffffffffffffffffffff16146106bd576040517f08c379a00000000000000000000000000000000000000000000000000000000081526004016106b4906118ea565b60405180910390fd5b600160036000858152602001908152602001600020600084815260200190815260200160002060008373ffffffffffffffffffffffffffffffffffffffff1673ffffffffffffffffffffffffffffffffffffffff16815260200190815260200160002060006101000a81548160ff021916908315150217905550505050565b6000600460009054906101000a900473ffffffffffffffffffffffffffffffffffffffff1673ffffffffffffffffffffffffffffffffffffffff163373ffffffffffffffffffffffffffffffffffffffff16146107ce576040517f08c379a00000000000000000000000000000000000000000000000000000000081526004016107c5906118ea565b60405180910390fd5b60008084815260200190815260200160002060060160009054906101000a900460ff16610830576040517f08c379a000000000000000000000000000000000000000000000000000000000815260040161082790611b1f565b60405180910390fd5b600080600085815260200190815260200160002060050154905060016000858152602001908152602001600020600082815260200190815260200160002060008473ffffffffffffffffffffffffffffffffffffffff1673ffffffffffffffffffffffffffffffffffffffff16815260200190815260200160002060009054906101000a900460ff166108f8576040517f08c379a00000000000000000000000000000000000000000000000000000000081526004016108ef90611b8b565b60405180910390fd5b6000806000868152602001908152602001600020905080600201548160030160008282546109269190611bab565b9250508190555060018160010160008282546109429190611bab565b92505081905550600060016000878152602001908152602001600020600084815260200190815260200160002060008673ffffffffffffffffffffffffffffffffffffffff1673ffffffffffffffffffffffffffffffffffffffff16815260200190815260200160002060006101000a81548160ff02191690831515021790555080600201549250505092915050565b600060036000858152602001908152602001600020600084815260200190815260200160002060008373ffffffffffffffffffffffffffffffffffffffff1673ffffffffffffffffffffffffffffffffffffffff16815260200190815260200160002060009054906101000a900460ff1690509392505050565b600080600083815260200190815260200160002060060160009054906101000a900460ff16610ab0576040517f08c379a0000000000000000000000000000000000000000000000000000000008152600401610aa790611c2b565b60405180910390fd5b600080838152602001908152602001600020600501549050919050565b600460009054906101000a900473ffffffffffffffffffffffffffffffffffffffff1681565b600080600083815260200190815260200160002060060160009054906101000a900460ff16610b57576040517f08c379a0000000000000000000000000000000000000000000000000000000008152600401610b4e90611c2b565b60405180910390fd5b6000806000848152602001908152602001600020600401549050610b986064610b8a605f8461149690919063ffffffff16565b61150390919063ffffffff16565b915050919050565b6003602052826000526040600020602052816000526040600020602052806000526040600020600092509250509054906101000a900460ff1681565b60006020528060005260406000206000915090508060000160009054906101000a900473ffffffffffffffffffffffffffffffffffffffff16908060010154908060020154908060030154908060040154908060050154908060060160009054906101000a900460ff16905087565b6000600460009054906101000a900473ffffffffffffffffffffffffffffffffffffffff1673ffffffffffffffffffffffffffffffffffffffff163373ffffffffffffffffffffffffffffffffffffffff1614610cdd576040517f08c379a0000000000000000000000000000000000000000000000000000000008152600401610cd4906118ea565b60405180910390fd5b60008085815260200190815260200160002060060160009054906101000a900460ff16610d3f576040517f08c379a0000000000000000000000000000000000000000000000000000000008152600401610d3690611956565b60405180910390fd5b6000806000868152602001908152602001600020600501549050808410610d9b576040517f08c379a0000000000000000000000000000000000000000000000000000000008152600401610d9290611cbd565b60405180910390fd5b6001151560016000878152602001908152602001600020600086815260200190815260200160002060008573ffffffffffffffffffffffffffffffffffffffff1673ffffffffffffffffffffffffffffffffffffffff16815260200190815260200160002060009054906101000a900460ff16151514610e50576040517f08c379a0000000000000000000000000000000000000000000000000000000008152600401610e4790611d4f565b60405180910390fd5b6000151560026000878152602001908152602001600020600086815260200190815260200160002060008573ffffffffffffffffffffffffffffffffffffffff1673ffffffffffffffffffffffffffffffffffffffff16815260200190815260200160002060009054906101000a900460ff16151514610f05576040517f08c379a0000000000000000000000000000000000000000000000000000000008152600401610efc90611dbb565b60405180910390fd5b600160026000878152602001908152602001600020600086815260200190815260200160002060008573ffffffffffffffffffffffffffffffffffffffff1673ffffffffffffffffffffffffffffffffffffffff16815260200190815260200160002060006101000a81548160ff02191690831515021790555060019150509392505050565b600460009054906101000a900473ffffffffffffffffffffffffffffffffffffffff1673ffffffffffffffffffffffffffffffffffffffff163373ffffffffffffffffffffffffffffffffffffffff161461101b576040517f08c379a000000000000000000000000000000000000000000000000000000000815260040161101290611e27565b60405180910390fd5b60008083815260200190815260200160002060060160009054906101000a900460ff1661107d576040517f08c379a000000000000000000000000000000000000000000000000000000000815260040161107490611b1f565b60405180910390fd5b8073ffffffffffffffffffffffffffffffffffffffff1660008084815260200190815260200160002060000160009054906101000a900473ffffffffffffffffffffffffffffffffffffffff1673ffffffffffffffffffffffffffffffffffffffff1614611120576040517f08c379a000000000000000000000000000000000000000000000000000000000815260040161111790611e93565b60405180910390fd5b600080838152602001908152602001600020600080820160006101000a81549073ffffffffffffffffffffffffffffffffffffffff0219169055600182016000905560028201600090556003820160009055600482016000905560058201600090556006820160006101000a81549060ff021916905550505050565b600460009054906101000a900473ffffffffffffffffffffffffffffffffffffffff1673ffffffffffffffffffffffffffffffffffffffff163373ffffffffffffffffffffffffffffffffffffffff161461122c576040517f08c379a0000000000000000000000000000000000000000000000000000000008152600401611223906118ea565b60405180910390fd5b60008084815260200190815260200160002060060160009054906101000a900460ff161561128f576040517f08c379a000000000000000000000000000000000000000000000000000000000815260040161128690611eff565b60405180910390fd5b60008060008581526020019081526020016000209050818160000160006101000a81548173ffffffffffffffffffffffffffffffffffffffff021916908373ffffffffffffffffffffffffffffffffffffffff1602179055508281600401819055506113096004826004015461150390919063ffffffff16565b816002018190555060018160060160006101000a81548160ff0219169083151502179055506001816005018190555050505050565b6113d68282604051602401611354929190611fa7565b6040516020818303038152906040527f319af333000000000000000000000000000000000000000000000000000000007bffffffffffffffffffffffffffffffffffffffffffffffffffffffff19166020820180517bffffffffffffffffffffffffffffffffffffffffffffffffffffffff8381831617835250505050611530565b5050565b600080600083815260200190815260200160002060060160009054906101000a900460ff1661143e576040517f08c379a000000000000000000000000000000000000000000000000000000000815260040161143590611b1f565b60405180910390fd5b6000806000848152602001908152602001600020905060006114718260030154836004015461155990919063ffffffff16565b905081600201548110156114875780925061148f565b816002015492505b5050919050565b6000808214806114be5750828283856114af9190611fd7565b9250826114bc9190612060565b145b6114fd576040517f08c379a00000000000000000000000000000000000000000000000000000000081526004016114f4906120dd565b60405180910390fd5b92915050565b600080821415611516576000905061152a565b81838161152657611525612031565b5b0490505b92915050565b60008151905060006a636f6e736f6c652e6c6f679050602083016000808483855afa5050505050565b60008282846115689190611bab565b91508111156115ac576040517f08c379a00000000000000000000000000000000000000000000000000000000081526004016115a390612149565b60405180910390fd5b92915050565b600080fd5b6000819050919050565b6115ca816115b7565b81146115d557600080fd5b50565b6000813590506115e7816115c1565b92915050565b600073ffffffffffffffffffffffffffffffffffffffff82169050919050565b6000611618826115ed565b9050919050565b6116288161160d565b811461163357600080fd5b50565b6000813590506116458161161f565b92915050565b6000819050919050565b61165e8161164b565b811461166957600080fd5b50565b60008135905061167b81611655565b92915050565b60008060006060848603121561169a576116996115b2565b5b60006116a8868287016115d8565b93505060206116b986828701611636565b92505060406116ca8682870161166c565b9150509250925092565b6000806000606084860312156116ed576116ec6115b2565b5b60006116fb868287016115d8565b935050602061170c8682870161166c565b925050604061171d86828701611636565b9150509250925092565b60008115159050919050565b61173c81611727565b82525050565b60006020820190506117576000830184611733565b92915050565b60008060408385031215611774576117736115b2565b5b6000611782858286016115d8565b925050602061179385828601611636565b9150509250929050565b6117a68161164b565b82525050565b60006020820190506117c1600083018461179d565b92915050565b6000602082840312156117dd576117dc6115b2565b5b60006117eb848285016115d8565b91505092915050565b6117fd8161160d565b82525050565b600060208201905061181860008301846117f4565b92915050565b600060e082019050611833600083018a6117f4565b611840602083018961179d565b61184d604083018861179d565b61185a606083018761179d565b611867608083018661179d565b61187460a083018561179d565b61188160c0830184611733565b98975050505050505050565b600082825260208201905092915050565b7f496e746572616374207769746820726f75746572000000000000000000000000600082015250565b60006118d460148361188d565b91506118df8261189e565b602082019050919050565b60006020820190508181036000830152611903816118c7565b9050919050565b7f506f6f6c206973206e6f74206372656174656400000000000000000000000000600082015250565b600061194060138361188d565b915061194b8261190a565b602082019050919050565b6000602082019050818103600083015261196f81611933565b9050919050565b7f596f752061726520616c7265616479206120636f6e7472696275746f72000000600082015250565b60006119ac601d8361188d565b91506119b782611976565b602082019050919050565b600060208201905081810360008301526119db8161199f565b9050919050565b7f496e73756666696369656e7420636f6e747269627574696f6e00000000000000600082015250565b6000611a1860198361188d565b9150611a23826119e2565b602082019050919050565b60006020820190508181036000830152611a4781611a0b565b9050919050565b7f4e487b7100000000000000000000000000000000000000000000000000000000600052601160045260246000fd5b6000611a888261164b565b9150611a938361164b565b9250827fffffffffffffffffffffffffffffffffffffffffffffffffffffffffffffffff03821115611ac857611ac7611a4e565b5b828201905092915050565b7f506f6f6c20646f6573206e6f7420657869737473000000000000000000000000600082015250565b6000611b0960148361188d565b9150611b1482611ad3565b602082019050919050565b60006020820190508181036000830152611b3881611afc565b9050919050565b7f596f7520617265206e6f74206120636f6e7472696275746f7200000000000000600082015250565b6000611b7560198361188d565b9150611b8082611b3f565b602082019050919050565b60006020820190508181036000830152611ba481611b68565b9050919050565b6000611bb68261164b565b9150611bc18361164b565b925082821015611bd457611bd3611a4e565b5b828203905092915050565b7f54686520706f6f6c20646f6573206e6f74206578697374730000000000000000600082015250565b6000611c1560188361188d565b9150611c2082611bdf565b602082019050919050565b60006020820190508181036000830152611c4481611c08565b9050919050565b7f52656465656d207068617365206d757374206265206c657373207468616e207460008201527f68652063757272656e7420706861736500000000000000000000000000000000602082015250565b6000611ca760308361188d565b9150611cb282611c4b565b604082019050919050565b60006020820190508181036000830152611cd681611c9a565b9050919050565b7f596f752068617665206e6f7420636f6e747269627574656420746f207468617460008201527f2070686173650000000000000000000000000000000000000000000000000000602082015250565b6000611d3960268361188d565b9150611d4482611cdd565b604082019050919050565b60006020820190508181036000830152611d6881611d2c565b9050919050565b7f596f75206861766520616c72656164792072656465656d656400000000000000600082015250565b6000611da560198361188d565b9150611db082611d6f565b602082019050919050565b60006020820190508181036000830152611dd481611d98565b9050919050565b7f496e7465726163742077697468206f776e657200000000000000000000000000600082015250565b6000611e1160138361188d565b9150611e1c82611ddb565b602082019050919050565b60006020820190508181036000830152611e4081611e04565b9050919050565b7f596f7520617265206e6f7420617574686f72206f66207468697320626f6f6b00600082015250565b6000611e7d601f8361188d565b9150611e8882611e47565b602082019050919050565b60006020820190508181036000830152611eac81611e70565b9050919050565b7f54686520706f6f6c20697320616c726561647920637265617465640000000000600082015250565b6000611ee9601b8361188d565b9150611ef482611eb3565b602082019050919050565b60006020820190508181036000830152611f1881611edc565b9050919050565b600081519050919050565b60005b83811015611f48578082015181840152602081019050611f2d565b83811115611f57576000848401525b50505050565b6000601f19601f8301169050919050565b6000611f7982611f1f565b611f83818561188d565b9350611f93818560208601611f2a565b611f9c81611f5d565b840191505092915050565b60006040820190508181036000830152611fc18185611f6e565b9050611fd060208301846117f4565b9392505050565b6000611fe28261164b565b9150611fed8361164b565b9250817fffffffffffffffffffffffffffffffffffffffffffffffffffffffffffffffff048311821515161561202657612025611a4e565b5b828202905092915050565b7f4e487b7100000000000000000000000000000000000000000000000000000000600052601260045260246000fd5b600061206b8261164b565b91506120768361164b565b92508261208657612085612031565b5b828204905092915050565b7f64732d6d6174682d6d756c2d6f766572666c6f77000000000000000000000000600082015250565b60006120c760148361188d565b91506120d282612091565b602082019050919050565b600060208201905081810360008301526120f6816120ba565b9050919050565b7f64732d6d6174682d7375622d756e646572666c6f770000000000000000000000600082015250565b600061213360158361188d565b915061213e826120fd565b602082019050919050565b6000602082019050818103600083015261216281612126565b905091905056fea26469706673582212207eef098fff1cfc6640eab0e2929bdb77805278a82cf4940e88066f10ab12c35064736f6c63430008090033546865206f776e6572206f66207468652070617920636f6e747261637420697320",
  "devdoc": {
    "kind": "dev",
    "methods": {},
    "version": 1
  },
  "userdoc": {
    "kind": "user",
    "methods": {},
    "version": 1
  },
  "storageLayout": {
    "storage": [
      {
        "astId": 328,
        "contract": "contracts/Pay.sol:Pay",
        "label": "pools",
        "offset": 0,
        "slot": "0",
        "type": "t_mapping(t_bytes32,t_struct(Pool)323_storage)"
      },
      {
        "astId": 336,
        "contract": "contracts/Pay.sol:Pay",
        "label": "contributors",
        "offset": 0,
        "slot": "1",
        "type": "t_mapping(t_bytes32,t_mapping(t_uint256,t_mapping(t_address,t_bool)))"
      },
      {
        "astId": 344,
        "contract": "contracts/Pay.sol:Pay",
        "label": "redeemed",
        "offset": 0,
        "slot": "2",
        "type": "t_mapping(t_bytes32,t_mapping(t_uint256,t_mapping(t_address,t_bool)))"
      },
      {
        "astId": 352,
        "contract": "contracts/Pay.sol:Pay",
        "label": "authorWithdrawals",
        "offset": 0,
        "slot": "3",
        "type": "t_mapping(t_bytes32,t_mapping(t_uint256,t_mapping(t_address,t_bool)))"
      },
      {
        "astId": 354,
        "contract": "contracts/Pay.sol:Pay",
        "label": "owner",
        "offset": 0,
        "slot": "4",
        "type": "t_address"
      }
    ],
    "types": {
      "t_address": {
        "encoding": "inplace",
        "label": "address",
        "numberOfBytes": "20"
      },
      "t_bool": {
        "encoding": "inplace",
        "label": "bool",
        "numberOfBytes": "1"
      },
      "t_bytes32": {
        "encoding": "inplace",
        "label": "bytes32",
        "numberOfBytes": "32"
      },
      "t_mapping(t_address,t_bool)": {
        "encoding": "mapping",
        "key": "t_address",
        "label": "mapping(address => bool)",
        "numberOfBytes": "32",
        "value": "t_bool"
      },
      "t_mapping(t_bytes32,t_mapping(t_uint256,t_mapping(t_address,t_bool)))": {
        "encoding": "mapping",
        "key": "t_bytes32",
        "label": "mapping(bytes32 => mapping(uint256 => mapping(address => bool)))",
        "numberOfBytes": "32",
        "value": "t_mapping(t_uint256,t_mapping(t_address,t_bool))"
      },
      "t_mapping(t_bytes32,t_struct(Pool)323_storage)": {
        "encoding": "mapping",
        "key": "t_bytes32",
        "label": "mapping(bytes32 => struct Pay.Pool)",
        "numberOfBytes": "32",
        "value": "t_struct(Pool)323_storage"
      },
      "t_mapping(t_uint256,t_mapping(t_address,t_bool))": {
        "encoding": "mapping",
        "key": "t_uint256",
        "label": "mapping(uint256 => mapping(address => bool))",
        "numberOfBytes": "32",
        "value": "t_mapping(t_address,t_bool)"
      },
      "t_struct(Pool)323_storage": {
        "encoding": "inplace",
        "label": "struct Pay.Pool",
        "members": [
          {
            "astId": 310,
            "contract": "contracts/Pay.sol:Pay",
            "label": "owner",
            "offset": 0,
            "slot": "0",
            "type": "t_address"
          },
          {
            "astId": 312,
            "contract": "contracts/Pay.sol:Pay",
            "label": "numParticipants",
            "offset": 0,
            "slot": "1",
            "type": "t_uint256"
          },
          {
            "astId": 314,
            "contract": "contracts/Pay.sol:Pay",
            "label": "pricePerContribution",
            "offset": 0,
            "slot": "2",
            "type": "t_uint256"
          },
          {
            "astId": 316,
            "contract": "contracts/Pay.sol:Pay",
            "label": "totalContribution",
            "offset": 0,
            "slot": "3",
            "type": "t_uint256"
          },
          {
            "astId": 318,
            "contract": "contracts/Pay.sol:Pay",
            "label": "bookPrice",
            "offset": 0,
            "slot": "4",
            "type": "t_uint256"
          },
          {
            "astId": 320,
            "contract": "contracts/Pay.sol:Pay",
            "label": "phase",
            "offset": 0,
            "slot": "5",
            "type": "t_uint256"
          },
          {
            "astId": 322,
            "contract": "contracts/Pay.sol:Pay",
            "label": "created",
            "offset": 0,
            "slot": "6",
            "type": "t_bool"
          }
        ],
        "numberOfBytes": "224"
      },
      "t_uint256": {
        "encoding": "inplace",
        "label": "uint256",
        "numberOfBytes": "32"
      }
    }
  }
}