{
  "address": "0x92D73a8FB635Fd7C7B241Db4BbD7682ecFF8Bc62",
  "abi": [
    {
      "inputs": [],
      "stateMutability": "payable",
      "type": "constructor"
    },
    {
      "inputs": [
        {
          "internalType": "string",
          "name": "_hash",
          "type": "string"
        },
        {
          "internalType": "uint256",
          "name": "_price",
          "type": "uint256"
        },
        {
          "internalType": "bool",
          "name": "_createPool",
          "type": "bool"
        }
      ],
      "name": "addBook",
      "outputs": [],
      "stateMutability": "nonpayable",
      "type": "function"
    },
    {
      "inputs": [
        {
          "internalType": "string",
          "name": "_hash",
          "type": "string"
        }
      ],
      "name": "addContribution",
      "outputs": [],
      "stateMutability": "payable",
      "type": "function"
    },
    {
      "inputs": [],
      "name": "book",
      "outputs": [
        {
          "internalType": "address",
          "name": "",
          "type": "address"
        }
      ],
      "stateMutability": "view",
      "type": "function"
    },
    {
      "inputs": [
        {
          "internalType": "string",
          "name": "_hash",
          "type": "string"
        },
        {
          "internalType": "uint256",
          "name": "_price",
          "type": "uint256"
        }
      ],
      "name": "createPool",
      "outputs": [],
      "stateMutability": "nonpayable",
      "type": "function"
    },
    {
      "inputs": [
        {
          "internalType": "string",
          "name": "_hash",
          "type": "string"
        }
      ],
      "name": "deleteBook",
      "outputs": [],
      "stateMutability": "nonpayable",
      "type": "function"
    },
    {
      "inputs": [
        {
          "internalType": "string",
          "name": "_hash",
          "type": "string"
        }
      ],
      "name": "deletePool",
      "outputs": [],
      "stateMutability": "nonpayable",
      "type": "function"
    },
    {
      "inputs": [
        {
          "internalType": "bytes32",
          "name": "_salt",
          "type": "bytes32"
        }
      ],
      "name": "deployBookContract",
      "outputs": [
        {
          "internalType": "address",
          "name": "",
          "type": "address"
        }
      ],
      "stateMutability": "payable",
      "type": "function"
    },
    {
      "inputs": [
        {
          "internalType": "bytes32",
          "name": "_salt",
          "type": "bytes32"
        }
      ],
      "name": "deployPayContract",
      "outputs": [
        {
          "internalType": "address",
          "name": "",
          "type": "address"
        }
      ],
      "stateMutability": "payable",
      "type": "function"
    },
    {
      "inputs": [
        {
          "internalType": "string",
          "name": "_hash",
          "type": "string"
        }
      ],
      "name": "exists",
      "outputs": [
        {
          "internalType": "bool",
          "name": "status",
          "type": "bool"
        }
      ],
      "stateMutability": "nonpayable",
      "type": "function"
    },
    {
      "inputs": [],
      "name": "fund",
      "outputs": [],
      "stateMutability": "payable",
      "type": "function"
    },
    {
      "inputs": [],
      "name": "owner",
      "outputs": [
        {
          "internalType": "address",
          "name": "",
          "type": "address"
        }
      ],
      "stateMutability": "view",
      "type": "function"
    },
    {
      "inputs": [],
      "name": "pay",
      "outputs": [
        {
          "internalType": "address",
          "name": "",
          "type": "address"
        }
      ],
      "stateMutability": "view",
      "type": "function"
    },
    {
      "inputs": [
        {
          "internalType": "string",
          "name": "_hash",
          "type": "string"
        },
        {
          "internalType": "uint256",
          "name": "_phase",
          "type": "uint256"
        }
      ],
      "name": "redeemBook",
      "outputs": [
        {
          "internalType": "bool",
          "name": "status",
          "type": "bool"
        }
      ],
      "stateMutability": "nonpayable",
      "type": "function"
    },
    {
      "inputs": [],
      "name": "token",
      "outputs": [
        {
          "internalType": "address",
          "name": "",
          "type": "address"
        }
      ],
      "stateMutability": "view",
      "type": "function"
    },
    {
      "inputs": [
        {
          "internalType": "string",
          "name": "_hash",
          "type": "string"
        },
        {
          "internalType": "uint256",
          "name": "_phase",
          "type": "uint256"
        }
      ],
      "name": "withdrawAuthorEarnings",
      "outputs": [],
      "stateMutability": "nonpayable",
      "type": "function"
    },
    {
      "inputs": [
        {
          "internalType": "string",
          "name": "_hash",
          "type": "string"
        }
      ],
      "name": "withdrawContribution",
      "outputs": [],
      "stateMutability": "nonpayable",
      "type": "function"
    }
  ],
  "transactionHash": "0x8bd294de8acbb49364f65e2a256151a1a0477361791ba3daf147c48358b09777",
  "args": [],
  "numDeployments": 3,
  "solcInputHash": "4ecd87b5642a8a7b9b728148b4fdf211",
  "bytecode": "0x608060405233600360006101000a81548173ffffffffffffffffffffffffffffffffffffffff021916908373ffffffffffffffffffffffffffffffffffffffff1602179055506200009b6200008f6040518060400160405280600581526020017f31303030300000000000000000000000000000000000000000000000000000008152506200025060201b60201c565b6200027c60201b60201c565b6000806101000a81548173ffffffffffffffffffffffffffffffffffffffff021916908373ffffffffffffffffffffffffffffffffffffffff16021790555062000130620001246040518060400160405280600581526020017f32303030300000000000000000000000000000000000000000000000000000008152506200025060201b60201c565b620002c360201b60201c565b600160006101000a81548173ffffffffffffffffffffffffffffffffffffffff021916908373ffffffffffffffffffffffffffffffffffffffff160217905550620001dc6040518060400160405280600c81526020017f426f6f6b2061646472657373000000000000000000000000000000000000000081525060008054906101000a900473ffffffffffffffffffffffffffffffffffffffff166200030a60201b620019fd1760201c565b6200024a6040518060400160405280600b81526020017f5061792061646472657373000000000000000000000000000000000000000000815250600160009054906101000a900473ffffffffffffffffffffffffffffffffffffffff166200030a60201b620019fd1760201c565b6200052f565b6000808290506000815114156200026e576000801b91505062000277565b60208301519150505b919050565b600081306040516200028e90620003d9565b6200029a91906200043a565b8190604051809103906000f5905080158015620002bb573d6000803e3d6000fd5b509050919050565b60008130604051620002d590620003e7565b620002e191906200043a565b8190604051809103906000f590508015801562000302573d6000803e3d6000fd5b509050919050565b620003ac828260405160240162000323929190620004fb565b6040516020818303038152906040527f319af333000000000000000000000000000000000000000000000000000000007bffffffffffffffffffffffffffffffffffffffffffffffffffffffff19166020820180517bffffffffffffffffffffffffffffffffffffffffffffffffffffffff8381831617835250505050620003b060201b60201c565b5050565b60008151905060006a636f6e736f6c652e6c6f679050602083016000808483855afa5050505050565b61143d806200622483390190565b61214d806200766183390190565b600073ffffffffffffffffffffffffffffffffffffffff82169050919050565b60006200042282620003f5565b9050919050565b620004348162000415565b82525050565b600060208201905062000451600083018462000429565b92915050565b600081519050919050565b600082825260208201905092915050565b60005b838110156200049357808201518184015260208101905062000476565b83811115620004a3576000848401525b50505050565b6000601f19601f8301169050919050565b6000620004c78262000457565b620004d3818562000462565b9350620004e581856020860162000473565b620004f081620004a9565b840191505092915050565b60006040820190508181036000830152620005178185620004ba565b905062000528602083018462000429565b9392505050565b615ce5806200053f6000396000f3fe6080604052600436106200010a5760003560e01c8063869caed61162000097578063d43c92511162000061578063d43c92511462000341578063d9b31152146200036f578063f963752314620003a5578063fc0c546a14620003d3576200010a565b8063869caed614620002a15780638da5cb5b14620002d7578063b60d42881462000307578063bca106b51462000313576200010a565b806326fc66ab11620000d957806326fc66ab14620001f757806328a5f929146200022557806353a9dbc614620002535780635e3b54f11462000281576200010a565b806305a8da72146200010f5780630caa4526146200013f5780631b9265b81462000183578063261a323e14620001b3575b600080fd5b3480156200011c57600080fd5b506200012762000403565b60405162000136919062001b53565b60405180910390f35b3480156200014c57600080fd5b506200016b600480360381019062000165919062001d21565b62000427565b6040516200017a919062001da4565b60405180910390f35b3480156200019057600080fd5b506200019b620005f8565b604051620001aa919062001b53565b60405180910390f35b348015620001c057600080fd5b50620001df6004803603810190620001d9919062001dc1565b6200061e565b604051620001ee919062001da4565b60405180910390f35b3480156200020457600080fd5b506200022360048036038101906200021d919062001d21565b620006e7565b005b3480156200023257600080fd5b506200025160048036038101906200024b919062001e43565b620006eb565b005b3480156200026057600080fd5b506200027f600480360381019062000279919062001d21565b62000a2a565b005b6200029f600480360381019062000299919062001dc1565b6200103a565b005b620002bf6004803603810190620002b9919062001ef9565b620011e3565b604051620002ce919062001b53565b60405180910390f35b348015620002e457600080fd5b50620002ef6200122a565b604051620002fe919062001b53565b60405180910390f35b6200031162001250565b005b3480156200032057600080fd5b506200033f600480360381019062000339919062001dc1565b62001252565b005b3480156200034e57600080fd5b506200036d600480360381019062000367919062001dc1565b6200141e565b005b6200038d600480360381019062000387919062001ef9565b62001634565b6040516200039c919062001b53565b60405180910390f35b348015620003b257600080fd5b50620003d16004803603810190620003cb919062001dc1565b6200167b565b005b348015620003e057600080fd5b50620003eb620019d7565b604051620003fa919062001b53565b60405180910390f35b60008054906101000a900473ffffffffffffffffffffffffffffffffffffffff1681565b600080620004358462001a9d565b905060008060009054906101000a900473ffffffffffffffffffffffffffffffffffffffff1673ffffffffffffffffffffffffffffffffffffffff166338a699a4836040518263ffffffff1660e01b815260040162000495919062001f3c565b602060405180830381600087803b158015620004b057600080fd5b505af1158015620004c5573d6000803e3d6000fd5b505050506040513d601f19601f82011682018060405250810190620004eb919062001f70565b9050600115158115151462000537576040517f08c379a00000000000000000000000000000000000000000000000000000000081526004016200052e9062002029565b60405180910390fd5b600160009054906101000a900473ffffffffffffffffffffffffffffffffffffffff1673ffffffffffffffffffffffffffffffffffffffff1663c5913f988386336040518463ffffffff1660e01b815260040162000598939291906200205c565b602060405180830381600087803b158015620005b357600080fd5b505af1158015620005c8573d6000803e3d6000fd5b505050506040513d601f19601f82011682018060405250810190620005ee919062001f70565b9250505092915050565b600160009054906101000a900473ffffffffffffffffffffffffffffffffffffffff1681565b6000806200062c8362001a9d565b905060008054906101000a900473ffffffffffffffffffffffffffffffffffffffff1673ffffffffffffffffffffffffffffffffffffffff166338a699a4826040518263ffffffff1660e01b815260040162000689919062001f3c565b602060405180830381600087803b158015620006a457600080fd5b505af1158015620006b9573d6000803e3d6000fd5b505050506040513d601f19601f82011682018060405250810190620006df919062001f70565b915050919050565b5050565b6000620006f88462001a9d565b9050600033905060008060009054906101000a900473ffffffffffffffffffffffffffffffffffffffff1673ffffffffffffffffffffffffffffffffffffffff166338a699a4846040518263ffffffff1660e01b81526004016200075d919062001f3c565b602060405180830381600087803b1580156200077857600080fd5b505af11580156200078d573d6000803e3d6000fd5b505050506040513d601f19601f82011682018060405250810190620007b3919062001f70565b90506000151581151514620007ff576040517f08c379a0000000000000000000000000000000000000000000000000000000008152600401620007f690620020e9565b60405180910390fd5b60008060009054906101000a900473ffffffffffffffffffffffffffffffffffffffff1673ffffffffffffffffffffffffffffffffffffffff16631be40c60846040518263ffffffff1660e01b81526004016200085d919062001b53565b602060405180830381600087803b1580156200087857600080fd5b505af11580156200088d573d6000803e3d6000fd5b505050506040513d601f19601f82011682018060405250810190620008b3919062002122565b9050600a8110620008fb576040517f08c379a0000000000000000000000000000000000000000000000000000000008152600401620008f290620021ca565b60405180910390fd5b60008054906101000a900473ffffffffffffffffffffffffffffffffffffffff1673ffffffffffffffffffffffffffffffffffffffff16636b6dda5b85856040518363ffffffff1660e01b815260040162000958929190620021ec565b600060405180830381600087803b1580156200097357600080fd5b505af115801562000988573d6000803e3d6000fd5b50505050600160009054906101000a900473ffffffffffffffffffffffffffffffffffffffff1673ffffffffffffffffffffffffffffffffffffffff1663d942b4828588866040518463ffffffff1660e01b8152600401620009ed939291906200205c565b600060405180830381600087803b15801562000a0857600080fd5b505af115801562000a1d573d6000803e3d6000fd5b5050505050505050505050565b600062000a378362001a9d565b905060008060009054906101000a900473ffffffffffffffffffffffffffffffffffffffff1673ffffffffffffffffffffffffffffffffffffffff166338a699a4836040518263ffffffff1660e01b815260040162000a97919062001f3c565b602060405180830381600087803b15801562000ab257600080fd5b505af115801562000ac7573d6000803e3d6000fd5b505050506040513d601f19601f8201168201806040525081019062000aed919062001f70565b9050600115158115151462000b39576040517f08c379a000000000000000000000000000000000000000000000000000000000815260040162000b30906200228f565b60405180910390fd5b60008060009054906101000a900473ffffffffffffffffffffffffffffffffffffffff1673ffffffffffffffffffffffffffffffffffffffff1663691d1c28846040518263ffffffff1660e01b815260040162000b97919062001f3c565b60206040518083038186803b15801562000bb057600080fd5b505afa15801562000bc5573d6000803e3d6000fd5b505050506040513d601f19601f8201168201806040525081019062000beb9190620022e2565b90508073ffffffffffffffffffffffffffffffffffffffff163373ffffffffffffffffffffffffffffffffffffffff161462000c5e576040517f08c379a000000000000000000000000000000000000000000000000000000000815260040162000c559062002364565b60405180910390fd5b6000600160009054906101000a900473ffffffffffffffffffffffffffffffffffffffff1673ffffffffffffffffffffffffffffffffffffffff166380857723856040518263ffffffff1660e01b815260040162000cbd919062001f3c565b60206040518083038186803b15801562000cd657600080fd5b505afa15801562000ceb573d6000803e3d6000fd5b505050506040513d601f19601f8201168201806040525081019062000d11919062002122565b90506001811162000d59576040517f08c379a000000000000000000000000000000000000000000000000000000000815260040162000d5090620023d6565b60405180910390fd5b80851062000d9e576040517f08c379a000000000000000000000000000000000000000000000000000000000815260040162000d95906200246e565b60405180910390fd5b600160009054906101000a900473ffffffffffffffffffffffffffffffffffffffff1673ffffffffffffffffffffffffffffffffffffffff166360e04e818587856040518463ffffffff1660e01b815260040162000dff939291906200205c565b60206040518083038186803b15801562000e1857600080fd5b505afa15801562000e2d573d6000803e3d6000fd5b505050506040513d601f19601f8201168201806040525081019062000e53919062001f70565b9250600015158315151462000e9f576040517f08c379a000000000000000000000000000000000000000000000000000000000815260040162000e9690620024e0565b60405180910390fd5b6000600160009054906101000a900473ffffffffffffffffffffffffffffffffffffffff1673ffffffffffffffffffffffffffffffffffffffff16639047695c866040518263ffffffff1660e01b815260040162000efe919062001f3c565b60206040518083038186803b15801562000f1757600080fd5b505afa15801562000f2c573d6000803e3d6000fd5b505050506040513d601f19601f8201168201806040525081019062000f52919062002122565b90508273ffffffffffffffffffffffffffffffffffffffff166108fc829081150290604051600060405180830381858888f1935050505015801562000f9b573d6000803e3d6000fd5b50600160009054906101000a900473ffffffffffffffffffffffffffffffffffffffff1673ffffffffffffffffffffffffffffffffffffffff16633ed4faaf8688866040518463ffffffff1660e01b815260040162000ffd939291906200205c565b600060405180830381600087803b1580156200101857600080fd5b505af11580156200102d573d6000803e3d6000fd5b5050505050505050505050565b6000620010478262001a9d565b905060008060009054906101000a900473ffffffffffffffffffffffffffffffffffffffff1673ffffffffffffffffffffffffffffffffffffffff166338a699a4836040518263ffffffff1660e01b8152600401620010a7919062001f3c565b602060405180830381600087803b158015620010c257600080fd5b505af1158015620010d7573d6000803e3d6000fd5b505050506040513d601f19601f82011682018060405250810190620010fd919062001f70565b9050600115158115151462001149576040517f08c379a000000000000000000000000000000000000000000000000000000000815260040162001140906200228f565b60405180910390fd5b600160009054906101000a900473ffffffffffffffffffffffffffffffffffffffff1673ffffffffffffffffffffffffffffffffffffffff16632f59123c8333346040518463ffffffff1660e01b8152600401620011aa9392919062002502565b600060405180830381600087803b158015620011c557600080fd5b505af1158015620011da573d6000803e3d6000fd5b50505050505050565b60008130604051620011f59062001af2565b62001201919062001b53565b8190604051809103906000f590508015801562001222573d6000803e3d6000fd5b509050919050565b600360009054906101000a900473ffffffffffffffffffffffffffffffffffffffff1681565b565b60006200125f8262001a9d565b905060008060009054906101000a900473ffffffffffffffffffffffffffffffffffffffff1673ffffffffffffffffffffffffffffffffffffffff1663691d1c28836040518263ffffffff1660e01b8152600401620012bf919062001f3c565b60206040518083038186803b158015620012d857600080fd5b505afa158015620012ed573d6000803e3d6000fd5b505050506040513d601f19601f82011682018060405250810190620013139190620022e2565b90508073ffffffffffffffffffffffffffffffffffffffff163373ffffffffffffffffffffffffffffffffffffffff161462001386576040517f08c379a00000000000000000000000000000000000000000000000000000000081526004016200137d90620025b5565b60405180910390fd5b600160009054906101000a900473ffffffffffffffffffffffffffffffffffffffff1673ffffffffffffffffffffffffffffffffffffffff1663ca78ffa683836040518363ffffffff1660e01b8152600401620013e5929190620021ec565b600060405180830381600087803b1580156200140057600080fd5b505af115801562001415573d6000803e3d6000fd5b50505050505050565b60006200142b8262001a9d565b905060008060009054906101000a900473ffffffffffffffffffffffffffffffffffffffff1673ffffffffffffffffffffffffffffffffffffffff166338a699a4836040518263ffffffff1660e01b81526004016200148b919062001f3c565b602060405180830381600087803b158015620014a657600080fd5b505af1158015620014bb573d6000803e3d6000fd5b505050506040513d601f19601f82011682018060405250810190620014e1919062001f70565b905060011515811515146200152d576040517f08c379a000000000000000000000000000000000000000000000000000000000815260040162001524906200228f565b60405180910390fd5b6000600160009054906101000a900473ffffffffffffffffffffffffffffffffffffffff1673ffffffffffffffffffffffffffffffffffffffff1663404ef01484336040518363ffffffff1660e01b81526004016200158e929190620021ec565b602060405180830381600087803b158015620015a957600080fd5b505af1158015620015be573d6000803e3d6000fd5b505050506040513d601f19601f82011682018060405250810190620015e4919062002122565b90503373ffffffffffffffffffffffffffffffffffffffff166108fc829081150290604051600060405180830381858888f193505050501580156200162d573d6000803e3d6000fd5b5050505050565b60008130604051620016469062001b00565b62001652919062001b53565b8190604051809103906000f590508015801562001673573d6000803e3d6000fd5b509050919050565b6000620016888262001a9d565b905060008060009054906101000a900473ffffffffffffffffffffffffffffffffffffffff1673ffffffffffffffffffffffffffffffffffffffff166338a699a4836040518263ffffffff1660e01b8152600401620016e8919062001f3c565b602060405180830381600087803b1580156200170357600080fd5b505af115801562001718573d6000803e3d6000fd5b505050506040513d601f19601f820116820180604052508101906200173e919062001f70565b905060011515811515146200178a576040517f08c379a0000000000000000000000000000000000000000000000000000000008152600401620017819062002029565b60405180910390fd5b60008060009054906101000a900473ffffffffffffffffffffffffffffffffffffffff1673ffffffffffffffffffffffffffffffffffffffff1663691d1c28846040518263ffffffff1660e01b8152600401620017e8919062001f3c565b60206040518083038186803b1580156200180157600080fd5b505afa15801562001816573d6000803e3d6000fd5b505050506040513d601f19601f820116820180604052508101906200183c9190620022e2565b90503373ffffffffffffffffffffffffffffffffffffffff168173ffffffffffffffffffffffffffffffffffffffff1614620018af576040517f08c379a0000000000000000000000000000000000000000000000000000000008152600401620018a6906200264d565b60405180910390fd5b60008054906101000a900473ffffffffffffffffffffffffffffffffffffffff1673ffffffffffffffffffffffffffffffffffffffff166363dcd599846040518263ffffffff1660e01b81526004016200190a919062001f3c565b600060405180830381600087803b1580156200192557600080fd5b505af11580156200193a573d6000803e3d6000fd5b50505050600160009054906101000a900473ffffffffffffffffffffffffffffffffffffffff1673ffffffffffffffffffffffffffffffffffffffff1663ca78ffa684836040518363ffffffff1660e01b81526004016200199d929190620021ec565b600060405180830381600087803b158015620019b857600080fd5b505af1158015620019cd573d6000803e3d6000fd5b5050505050505050565b600260009054906101000a900473ffffffffffffffffffffffffffffffffffffffff1681565b62001a99828260405160240162001a16929190620026f1565b6040516020818303038152906040527f319af333000000000000000000000000000000000000000000000000000000007bffffffffffffffffffffffffffffffffffffffffffffffffffffffff19166020820180517bffffffffffffffffffffffffffffffffffffffffffffffffffffffff838183161783525050505062001ac9565b5050565b60008082905060008151141562001abb576000801b91505062001ac4565b60208301519150505b919050565b60008151905060006a636f6e736f6c652e6c6f679050602083016000808483855afa5050505050565b61214d806200272683390190565b61143d806200487383390190565b600073ffffffffffffffffffffffffffffffffffffffff82169050919050565b600062001b3b8262001b0e565b9050919050565b62001b4d8162001b2e565b82525050565b600060208201905062001b6a600083018462001b42565b92915050565b6000604051905090565b600080fd5b600080fd5b600080fd5b600080fd5b6000601f19601f8301169050919050565b7f4e487b7100000000000000000000000000000000000000000000000000000000600052604160045260246000fd5b62001bd98262001b8e565b810181811067ffffffffffffffff8211171562001bfb5762001bfa62001b9f565b5b80604052505050565b600062001c1062001b70565b905062001c1e828262001bce565b919050565b600067ffffffffffffffff82111562001c415762001c4062001b9f565b5b62001c4c8262001b8e565b9050602081019050919050565b82818337600083830152505050565b600062001c7f62001c798462001c23565b62001c04565b90508281526020810184848401111562001c9e5762001c9d62001b89565b5b62001cab84828562001c59565b509392505050565b600082601f83011262001ccb5762001cca62001b84565b5b813562001cdd84826020860162001c68565b91505092915050565b6000819050919050565b62001cfb8162001ce6565b811462001d0757600080fd5b50565b60008135905062001d1b8162001cf0565b92915050565b6000806040838503121562001d3b5762001d3a62001b7a565b5b600083013567ffffffffffffffff81111562001d5c5762001d5b62001b7f565b5b62001d6a8582860162001cb3565b925050602062001d7d8582860162001d0a565b9150509250929050565b60008115159050919050565b62001d9e8162001d87565b82525050565b600060208201905062001dbb600083018462001d93565b92915050565b60006020828403121562001dda5762001dd962001b7a565b5b600082013567ffffffffffffffff81111562001dfb5762001dfa62001b7f565b5b62001e098482850162001cb3565b91505092915050565b62001e1d8162001d87565b811462001e2957600080fd5b50565b60008135905062001e3d8162001e12565b92915050565b60008060006060848603121562001e5f5762001e5e62001b7a565b5b600084013567ffffffffffffffff81111562001e805762001e7f62001b7f565b5b62001e8e8682870162001cb3565b935050602062001ea18682870162001d0a565b925050604062001eb48682870162001e2c565b9150509250925092565b6000819050919050565b62001ed38162001ebe565b811462001edf57600080fd5b50565b60008135905062001ef38162001ec8565b92915050565b60006020828403121562001f125762001f1162001b7a565b5b600062001f228482850162001ee2565b91505092915050565b62001f368162001ebe565b82525050565b600060208201905062001f53600083018462001f2b565b92915050565b60008151905062001f6a8162001e12565b92915050565b60006020828403121562001f895762001f8862001b7a565b5b600062001f998482850162001f59565b91505092915050565b600082825260208201905092915050565b7f54686520626f6f6b206973206e6f742075706c6f6164656420746f207468652060008201527f706c6174666f726d000000000000000000000000000000000000000000000000602082015250565b60006200201160288362001fa2565b91506200201e8262001fb3565b604082019050919050565b60006020820190508181036000830152620020448162002002565b9050919050565b620020568162001ce6565b82525050565b600060608201905062002073600083018662001f2b565b6200208260208301856200204b565b62002091604083018462001b42565b949350505050565b7f54686520626f6f6b20697320616c72656164792075706c6f6164656400000000600082015250565b6000620020d1601c8362001fa2565b9150620020de8262002099565b602082019050919050565b600060208201905081810360008301526200210481620020c2565b9050919050565b6000815190506200211c8162001cf0565b92915050565b6000602082840312156200213b576200213a62001b7a565b5b60006200214b848285016200210b565b91505092915050565b7f596f75206861766520616c72656164792075706c6f6164656420313020626f6f60008201527f6b73212100000000000000000000000000000000000000000000000000000000602082015250565b6000620021b260248362001fa2565b9150620021bf8262002154565b604082019050919050565b60006020820190508181036000830152620021e581620021a3565b9050919050565b600060408201905062002203600083018562001f2b565b62002212602083018462001b42565b9392505050565b7f54686520626f6f6b206973206e6f742075706c6f6164656420746f207468652060008201527f73797374656d0000000000000000000000000000000000000000000000000000602082015250565b60006200227760268362001fa2565b9150620022848262002219565b604082019050919050565b60006020820190508181036000830152620022aa8162002268565b9050919050565b620022bc8162001b2e565b8114620022c857600080fd5b50565b600081519050620022dc81620022b1565b92915050565b600060208284031215620022fb57620022fa62001b7a565b5b60006200230b84828501620022cb565b91505092915050565b7f596f7520617265206e6f7420617574686f72206f66207468697320626f6f6b00600082015250565b60006200234c601f8362001fa2565b9150620023598262002314565b602082019050919050565b600060208201905081810360008301526200237f816200233d565b9050919050565b7f4e6f20636f6d706c657465642070686173652079657400000000000000000000600082015250565b6000620023be60168362001fa2565b9150620023cb8262002386565b602082019050919050565b60006020820190508181036000830152620023f181620023af565b9050919050565b7f5769746864726177616c207068617365206d757374206265206c65737320746860008201527f616e2063757272656e7420706861736500000000000000000000000000000000602082015250565b60006200245660308362001fa2565b91506200246382620023f8565b604082019050919050565b60006020820190508181036000830152620024898162002447565b9050919050565b7f596f75206861766520616c72656164792077697468647261776e000000000000600082015250565b6000620024c8601a8362001fa2565b9150620024d58262002490565b602082019050919050565b60006020820190508181036000830152620024fb81620024b9565b9050919050565b600060608201905062002519600083018662001f2b565b62002528602083018562001b42565b6200253760408301846200204b565b949350505050565b7f596f7520617265206e6f7420617574686f72697a656420746f2063616c6c207460008201527f6869732066756e6374696f6e0000000000000000000000000000000000000000602082015250565b60006200259d602c8362001fa2565b9150620025aa826200253f565b604082019050919050565b60006020820190508181036000830152620025d0816200258e565b9050919050565b7f4f6e6c7920617574686f722063616e2064656c657465206974732075706c6f6160008201527f64656420626f6f6b000000000000000000000000000000000000000000000000602082015250565b60006200263560288362001fa2565b91506200264282620025d7565b604082019050919050565b60006020820190508181036000830152620026688162002626565b9050919050565b600081519050919050565b60005b838110156200269a5780820151818401526020810190506200267d565b83811115620026aa576000848401525b50505050565b6000620026bd826200266f565b620026c9818562001fa2565b9350620026db8185602086016200267a565b620026e68162001b8e565b840191505092915050565b600060408201905081810360008301526200270d8185620026b0565b90506200271e602083018462001b42565b939250505056fe60806040523480156200001157600080fd5b506040516200214d3803806200214d8339818101604052810190620000379190620000e9565b80600460006101000a81548173ffffffffffffffffffffffffffffffffffffffff021916908373ffffffffffffffffffffffffffffffffffffffff160217905550506200011b565b600080fd5b600073ffffffffffffffffffffffffffffffffffffffff82169050919050565b6000620000b18262000084565b9050919050565b620000c381620000a4565b8114620000cf57600080fd5b50565b600081519050620000e381620000b8565b92915050565b6000602082840312156200010257620001016200007f565b5b60006200011284828501620000d2565b91505092915050565b612022806200012b6000396000f3fe608060405234801561001057600080fd5b50600436106100cf5760003560e01c80638da5cb5b1161008c578063b5217bb411610066578063b5217bb41461024a578063c5913f9814610280578063ca78ffa6146102b0578063d942b482146102cc576100cf565b80638da5cb5b146101cc5780639047695c146101ea578063ab5b63a41461021a576100cf565b80632f59123c146100d4578063314cac27146100f05780633ed4faaf14610120578063404ef0141461013c57806360e04e811461016c578063808577231461019c575b600080fd5b6100ee60048036038101906100e991906115bc565b6102e8565b005b61010a6004803603810190610105919061160f565b6105f1565b604051610117919061167d565b60405180910390f35b61013a6004803603810190610135919061160f565b61062d565b005b61015660048036038101906101519190611698565b61073c565b60405161016391906116e7565b60405180910390f35b6101866004803603810190610181919061160f565b6109d2565b604051610193919061167d565b60405180910390f35b6101b660048036038101906101b19190611702565b610a4c565b6040516101c391906116e7565b60405180910390f35b6101d4610acd565b6040516101e1919061173e565b60405180910390f35b61020460048036038101906101ff9190611702565b610af3565b60405161021191906116e7565b60405180910390f35b610234600480360381019061022f919061160f565b610ba0565b604051610241919061167d565b60405180910390f35b610264600480360381019061025f9190611702565b610bdc565b6040516102779796959493929190611759565b60405180910390f35b61029a6004803603810190610295919061160f565b610c4b565b6040516102a7919061167d565b60405180910390f35b6102ca60048036038101906102c59190611698565b610f8b565b005b6102e660048036038101906102e1919061160f565b61119c565b005b600460009054906101000a900473ffffffffffffffffffffffffffffffffffffffff1673ffffffffffffffffffffffffffffffffffffffff163373ffffffffffffffffffffffffffffffffffffffff1614610378576040517f08c379a000000000000000000000000000000000000000000000000000000000815260040161036f90611825565b60405180910390fd5b60008084815260200190815260200160002060060160009054906101000a900460ff166103da576040517f08c379a00000000000000000000000000000000000000000000000000000000081526004016103d190611891565b60405180910390fd5b600080600085815260200190815260200160002090506000816005015490506000151560016000878152602001908152602001600020600083815260200190815260200160002060008673ffffffffffffffffffffffffffffffffffffffff1673ffffffffffffffffffffffffffffffffffffffff16815260200190815260200160002060009054906101000a900460ff161515146104ae576040517f08c379a00000000000000000000000000000000000000000000000000000000081526004016104a5906118fd565b60405180910390fd5b60006104b98661133e565b9050808410156104fe576040517f08c379a00000000000000000000000000000000000000000000000000000000081526004016104f590611969565b60405180910390fd5b6001806000888152602001908152602001600020600084815260200190815260200160002060008773ffffffffffffffffffffffffffffffffffffffff1673ffffffffffffffffffffffffffffffffffffffff16815260200190815260200160002060006101000a81548160ff021916908315150217905550826002015483600301600082825461058f91906119b8565b925050819055508260040154836003015414156105cd576000836003018190555060018360050160008282546105c591906119b8565b925050819055505b60018360010160008282546105e291906119b8565b92505081905550505050505050565b6002602052826000526040600020602052816000526040600020602052806000526040600020600092509250509054906101000a900460ff1681565b600460009054906101000a900473ffffffffffffffffffffffffffffffffffffffff1673ffffffffffffffffffffffffffffffffffffffff163373ffffffffffffffffffffffffffffffffffffffff16146106bd576040517f08c379a00000000000000000000000000000000000000000000000000000000081526004016106b490611825565b60405180910390fd5b600160036000858152602001908152602001600020600084815260200190815260200160002060008373ffffffffffffffffffffffffffffffffffffffff1673ffffffffffffffffffffffffffffffffffffffff16815260200190815260200160002060006101000a81548160ff021916908315150217905550505050565b6000600460009054906101000a900473ffffffffffffffffffffffffffffffffffffffff1673ffffffffffffffffffffffffffffffffffffffff163373ffffffffffffffffffffffffffffffffffffffff16146107ce576040517f08c379a00000000000000000000000000000000000000000000000000000000081526004016107c590611825565b60405180910390fd5b60008084815260200190815260200160002060060160009054906101000a900460ff16610830576040517f08c379a000000000000000000000000000000000000000000000000000000000815260040161082790611a5a565b60405180910390fd5b600080600085815260200190815260200160002060050154905060016000858152602001908152602001600020600082815260200190815260200160002060008473ffffffffffffffffffffffffffffffffffffffff1673ffffffffffffffffffffffffffffffffffffffff16815260200190815260200160002060009054906101000a900460ff166108f8576040517f08c379a00000000000000000000000000000000000000000000000000000000081526004016108ef90611ac6565b60405180910390fd5b6000806000868152602001908152602001600020905080600201548160030160008282546109269190611ae6565b9250508190555060018160010160008282546109429190611ae6565b92505081905550600060016000878152602001908152602001600020600084815260200190815260200160002060008673ffffffffffffffffffffffffffffffffffffffff1673ffffffffffffffffffffffffffffffffffffffff16815260200190815260200160002060006101000a81548160ff02191690831515021790555080600201549250505092915050565b600060036000858152602001908152602001600020600084815260200190815260200160002060008373ffffffffffffffffffffffffffffffffffffffff1673ffffffffffffffffffffffffffffffffffffffff16815260200190815260200160002060009054906101000a900460ff1690509392505050565b600080600083815260200190815260200160002060060160009054906101000a900460ff16610ab0576040517f08c379a0000000000000000000000000000000000000000000000000000000008152600401610aa790611b66565b60405180910390fd5b600080838152602001908152602001600020600501549050919050565b600460009054906101000a900473ffffffffffffffffffffffffffffffffffffffff1681565b600080600083815260200190815260200160002060060160009054906101000a900460ff16610b57576040517f08c379a0000000000000000000000000000000000000000000000000000000008152600401610b4e90611b66565b60405180910390fd5b6000806000848152602001908152602001600020600401549050610b986064610b8a605f846113fa90919063ffffffff16565b61146790919063ffffffff16565b915050919050565b6003602052826000526040600020602052816000526040600020602052806000526040600020600092509250509054906101000a900460ff1681565b60006020528060005260406000206000915090508060000160009054906101000a900473ffffffffffffffffffffffffffffffffffffffff16908060010154908060020154908060030154908060040154908060050154908060060160009054906101000a900460ff16905087565b6000600460009054906101000a900473ffffffffffffffffffffffffffffffffffffffff1673ffffffffffffffffffffffffffffffffffffffff163373ffffffffffffffffffffffffffffffffffffffff1614610cdd576040517f08c379a0000000000000000000000000000000000000000000000000000000008152600401610cd490611825565b60405180910390fd5b60008085815260200190815260200160002060060160009054906101000a900460ff16610d3f576040517f08c379a0000000000000000000000000000000000000000000000000000000008152600401610d3690611891565b60405180910390fd5b6000806000868152602001908152602001600020600501549050808410610d9b576040517f08c379a0000000000000000000000000000000000000000000000000000000008152600401610d9290611bf8565b60405180910390fd5b6001151560016000878152602001908152602001600020600086815260200190815260200160002060008573ffffffffffffffffffffffffffffffffffffffff1673ffffffffffffffffffffffffffffffffffffffff16815260200190815260200160002060009054906101000a900460ff16151514610e50576040517f08c379a0000000000000000000000000000000000000000000000000000000008152600401610e4790611c8a565b60405180910390fd5b6000151560026000878152602001908152602001600020600086815260200190815260200160002060008573ffffffffffffffffffffffffffffffffffffffff1673ffffffffffffffffffffffffffffffffffffffff16815260200190815260200160002060009054906101000a900460ff16151514610f05576040517f08c379a0000000000000000000000000000000000000000000000000000000008152600401610efc90611cf6565b60405180910390fd5b600160026000878152602001908152602001600020600086815260200190815260200160002060008573ffffffffffffffffffffffffffffffffffffffff1673ffffffffffffffffffffffffffffffffffffffff16815260200190815260200160002060006101000a81548160ff02191690831515021790555060019150509392505050565b600460009054906101000a900473ffffffffffffffffffffffffffffffffffffffff1673ffffffffffffffffffffffffffffffffffffffff163373ffffffffffffffffffffffffffffffffffffffff161461101b576040517f08c379a000000000000000000000000000000000000000000000000000000000815260040161101290611d62565b60405180910390fd5b60008083815260200190815260200160002060060160009054906101000a900460ff1661107d576040517f08c379a000000000000000000000000000000000000000000000000000000000815260040161107490611a5a565b60405180910390fd5b8073ffffffffffffffffffffffffffffffffffffffff1660008084815260200190815260200160002060000160009054906101000a900473ffffffffffffffffffffffffffffffffffffffff1673ffffffffffffffffffffffffffffffffffffffff1614611120576040517f08c379a000000000000000000000000000000000000000000000000000000000815260040161111790611dce565b60405180910390fd5b600080838152602001908152602001600020600080820160006101000a81549073ffffffffffffffffffffffffffffffffffffffff0219169055600182016000905560028201600090556003820160009055600482016000905560058201600090556006820160006101000a81549060ff021916905550505050565b600460009054906101000a900473ffffffffffffffffffffffffffffffffffffffff1673ffffffffffffffffffffffffffffffffffffffff163373ffffffffffffffffffffffffffffffffffffffff161461122c576040517f08c379a000000000000000000000000000000000000000000000000000000000815260040161122390611825565b60405180910390fd5b60008084815260200190815260200160002060060160009054906101000a900460ff161561128f576040517f08c379a000000000000000000000000000000000000000000000000000000000815260040161128690611e3a565b60405180910390fd5b60008060008581526020019081526020016000209050818160000160006101000a81548173ffffffffffffffffffffffffffffffffffffffff021916908373ffffffffffffffffffffffffffffffffffffffff1602179055508281600401819055506113096004826004015461146790919063ffffffff16565b816002018190555060018160060160006101000a81548160ff0219169083151502179055506001816005018190555050505050565b600080600083815260200190815260200160002060060160009054906101000a900460ff166113a2576040517f08c379a000000000000000000000000000000000000000000000000000000000815260040161139990611a5a565b60405180910390fd5b6000806000848152602001908152602001600020905060006113d58260030154836004015461149490919063ffffffff16565b905081600201548110156113eb578092506113f3565b816002015492505b5050919050565b6000808214806114225750828283856114139190611e5a565b9250826114209190611ee3565b145b611461576040517f08c379a000000000000000000000000000000000000000000000000000000000815260040161145890611f60565b60405180910390fd5b92915050565b60008082141561147a576000905061148e565b81838161148a57611489611eb4565b5b0490505b92915050565b60008282846114a39190611ae6565b91508111156114e7576040517f08c379a00000000000000000000000000000000000000000000000000000000081526004016114de90611fcc565b60405180910390fd5b92915050565b600080fd5b6000819050919050565b611505816114f2565b811461151057600080fd5b50565b600081359050611522816114fc565b92915050565b600073ffffffffffffffffffffffffffffffffffffffff82169050919050565b600061155382611528565b9050919050565b61156381611548565b811461156e57600080fd5b50565b6000813590506115808161155a565b92915050565b6000819050919050565b61159981611586565b81146115a457600080fd5b50565b6000813590506115b681611590565b92915050565b6000806000606084860312156115d5576115d46114ed565b5b60006115e386828701611513565b93505060206115f486828701611571565b9250506040611605868287016115a7565b9150509250925092565b600080600060608486031215611628576116276114ed565b5b600061163686828701611513565b9350506020611647868287016115a7565b925050604061165886828701611571565b9150509250925092565b60008115159050919050565b61167781611662565b82525050565b6000602082019050611692600083018461166e565b92915050565b600080604083850312156116af576116ae6114ed565b5b60006116bd85828601611513565b92505060206116ce85828601611571565b9150509250929050565b6116e181611586565b82525050565b60006020820190506116fc60008301846116d8565b92915050565b600060208284031215611718576117176114ed565b5b600061172684828501611513565b91505092915050565b61173881611548565b82525050565b6000602082019050611753600083018461172f565b92915050565b600060e08201905061176e600083018a61172f565b61177b60208301896116d8565b61178860408301886116d8565b61179560608301876116d8565b6117a260808301866116d8565b6117af60a08301856116d8565b6117bc60c083018461166e565b98975050505050505050565b600082825260208201905092915050565b7f496e746572616374207769746820726f75746572000000000000000000000000600082015250565b600061180f6014836117c8565b915061181a826117d9565b602082019050919050565b6000602082019050818103600083015261183e81611802565b9050919050565b7f506f6f6c206973206e6f74206372656174656400000000000000000000000000600082015250565b600061187b6013836117c8565b915061188682611845565b602082019050919050565b600060208201905081810360008301526118aa8161186e565b9050919050565b7f596f752061726520616c7265616479206120636f6e7472696275746f72000000600082015250565b60006118e7601d836117c8565b91506118f2826118b1565b602082019050919050565b60006020820190508181036000830152611916816118da565b9050919050565b7f496e73756666696369656e7420636f6e747269627574696f6e00000000000000600082015250565b60006119536019836117c8565b915061195e8261191d565b602082019050919050565b6000602082019050818103600083015261198281611946565b9050919050565b7f4e487b7100000000000000000000000000000000000000000000000000000000600052601160045260246000fd5b60006119c382611586565b91506119ce83611586565b9250827fffffffffffffffffffffffffffffffffffffffffffffffffffffffffffffffff03821115611a0357611a02611989565b5b828201905092915050565b7f506f6f6c20646f6573206e6f7420657869737473000000000000000000000000600082015250565b6000611a446014836117c8565b9150611a4f82611a0e565b602082019050919050565b60006020820190508181036000830152611a7381611a37565b9050919050565b7f596f7520617265206e6f74206120636f6e7472696275746f7200000000000000600082015250565b6000611ab06019836117c8565b9150611abb82611a7a565b602082019050919050565b60006020820190508181036000830152611adf81611aa3565b9050919050565b6000611af182611586565b9150611afc83611586565b925082821015611b0f57611b0e611989565b5b828203905092915050565b7f54686520706f6f6c20646f6573206e6f74206578697374730000000000000000600082015250565b6000611b506018836117c8565b9150611b5b82611b1a565b602082019050919050565b60006020820190508181036000830152611b7f81611b43565b9050919050565b7f52656465656d207068617365206d757374206265206c657373207468616e207460008201527f68652063757272656e7420706861736500000000000000000000000000000000602082015250565b6000611be26030836117c8565b9150611bed82611b86565b604082019050919050565b60006020820190508181036000830152611c1181611bd5565b9050919050565b7f596f752068617665206e6f7420636f6e747269627574656420746f207468617460008201527f2070686173650000000000000000000000000000000000000000000000000000602082015250565b6000611c746026836117c8565b9150611c7f82611c18565b604082019050919050565b60006020820190508181036000830152611ca381611c67565b9050919050565b7f596f75206861766520616c72656164792072656465656d656400000000000000600082015250565b6000611ce06019836117c8565b9150611ceb82611caa565b602082019050919050565b60006020820190508181036000830152611d0f81611cd3565b9050919050565b7f496e7465726163742077697468206f776e657200000000000000000000000000600082015250565b6000611d4c6013836117c8565b9150611d5782611d16565b602082019050919050565b60006020820190508181036000830152611d7b81611d3f565b9050919050565b7f596f7520617265206e6f7420617574686f72206f66207468697320626f6f6b00600082015250565b6000611db8601f836117c8565b9150611dc382611d82565b602082019050919050565b60006020820190508181036000830152611de781611dab565b9050919050565b7f54686520706f6f6c20697320616c726561647920637265617465640000000000600082015250565b6000611e24601b836117c8565b9150611e2f82611dee565b602082019050919050565b60006020820190508181036000830152611e5381611e17565b9050919050565b6000611e6582611586565b9150611e7083611586565b9250817fffffffffffffffffffffffffffffffffffffffffffffffffffffffffffffffff0483118215151615611ea957611ea8611989565b5b828202905092915050565b7f4e487b7100000000000000000000000000000000000000000000000000000000600052601260045260246000fd5b6000611eee82611586565b9150611ef983611586565b925082611f0957611f08611eb4565b5b828204905092915050565b7f64732d6d6174682d6d756c2d6f766572666c6f77000000000000000000000000600082015250565b6000611f4a6014836117c8565b9150611f5582611f14565b602082019050919050565b60006020820190508181036000830152611f7981611f3d565b9050919050565b7f64732d6d6174682d7375622d756e646572666c6f770000000000000000000000600082015250565b6000611fb66015836117c8565b9150611fc182611f80565b602082019050919050565b60006020820190508181036000830152611fe581611fa9565b905091905056fea2646970667358221220ddc2a3e0b6f92c432ac1e984a41cf500825a634a2a29aa520a93171c2dc1480364736f6c6343000809003360806040523480156200001157600080fd5b506040516200143d3803806200143d8339818101604052810190620000379190620000f1565b600a60038190555080600560006101000a81548173ffffffffffffffffffffffffffffffffffffffff021916908373ffffffffffffffffffffffffffffffffffffffff1602179055505062000123565b600080fd5b600073ffffffffffffffffffffffffffffffffffffffff82169050919050565b6000620000b9826200008c565b9050919050565b620000cb81620000ac565b8114620000d757600080fd5b50565b600081519050620000eb81620000c0565b92915050565b6000602082840312156200010a576200010962000087565b5b60006200011a84828501620000da565b91505092915050565b61130a80620001336000396000f3fe608060405234801561001057600080fd5b50600436106100885760003560e01c8063691d1c281161005b578063691d1c28146101395780636b6dda5b146101695780638da5cb5b14610185578063a72877a6146101a357610088565b80631be40c601461008d57806338a699a4146100bd57806363dcd599146100ed5780636874404614610109575b600080fd5b6100a760048036038101906100a29190610b32565b6101d3565b6040516100b49190610b78565b60405180910390f35b6100d760048036038101906100d29190610bc9565b61021c565b6040516100e49190610c11565b60405180910390f35b61010760048036038101906101029190610bc9565b610246565b005b610123600480360381019061011e9190610c58565b6104bc565b6040516101309190610c94565b60405180910390f35b610153600480360381019061014e9190610bc9565b6104e0565b6040516101609190610cbe565b60405180910390f35b610183600480360381019061017e9190610cd9565b61057d565b005b61018d610858565b60405161019a9190610cbe565b60405180910390f35b6101bd60048036038101906101b89190610b32565b61087e565b6040516101ca9190610dc4565b60405180910390f35b6000600460008373ffffffffffffffffffffffffffffffffffffffff1673ffffffffffffffffffffffffffffffffffffffff168152602001908152602001600020549050919050565b60006002600083815260200190815260200160002060009054906101000a900460ff169050919050565b600560009054906101000a900473ffffffffffffffffffffffffffffffffffffffff1673ffffffffffffffffffffffffffffffffffffffff163373ffffffffffffffffffffffffffffffffffffffff16146102d6576040517f08c379a00000000000000000000000000000000000000000000000000000000081526004016102cd90610e3d565b60405180910390fd5b600115156002600083815260200190815260200160002060009054906101000a900460ff1615151461033d576040517f08c379a000000000000000000000000000000000000000000000000000000000815260040161033490610ecf565b60405180910390fd5b60005b6000805490508110156103a957816000828154811061036257610361610eef565b5b90600052602060002001541415610396576000818154811061038757610386610eef565b5b90600052602060002001600090555b80806103a190610f4d565b915050610340565b5060006002600083815260200190815260200160002060006101000a81548160ff02191690831515021790555060006001600083815260200190815260200160002060009054906101000a900473ffffffffffffffffffffffffffffffffffffffff16905060006001600084815260200190815260200160002060006101000a81548173ffffffffffffffffffffffffffffffffffffffff021916908373ffffffffffffffffffffffffffffffffffffffff1602179055506001600460008373ffffffffffffffffffffffffffffffffffffffff1673ffffffffffffffffffffffffffffffffffffffff16815260200190815260200160002060008282546104b19190610f96565b925050819055505050565b600081815481106104cc57600080fd5b906000526020600020016000915090505481565b60006002600083815260200190815260200160002060009054906101000a900460ff16610542576040517f08c379a00000000000000000000000000000000000000000000000000000000081526004016105399061103c565b60405180910390fd5b6001600083815260200190815260200160002060009054906101000a900473ffffffffffffffffffffffffffffffffffffffff169050919050565b600560009054906101000a900473ffffffffffffffffffffffffffffffffffffffff1673ffffffffffffffffffffffffffffffffffffffff163373ffffffffffffffffffffffffffffffffffffffff161461060d576040517f08c379a000000000000000000000000000000000000000000000000000000000815260040161060490610e3d565b60405180910390fd5b600015156002600084815260200190815260200160002060009054906101000a900460ff16151514610674576040517f08c379a000000000000000000000000000000000000000000000000000000000815260040161066b906110a8565b60405180910390fd5b600354600460008373ffffffffffffffffffffffffffffffffffffffff1673ffffffffffffffffffffffffffffffffffffffff16815260200190815260200160002054106106f7576040517f08c379a00000000000000000000000000000000000000000000000000000000081526004016106ee9061113a565b60405180910390fd5b60008290806001815401808255809150506001900390600052602060002001600090919091909150556001600460008373ffffffffffffffffffffffffffffffffffffffff1673ffffffffffffffffffffffffffffffffffffffff1681526020019081526020016000206000828254610770919061115a565b92505081905550806001600084815260200190815260200160002060006101000a81548173ffffffffffffffffffffffffffffffffffffffff021916908373ffffffffffffffffffffffffffffffffffffffff16021790555060016002600084815260200190815260200160002060006101000a81548160ff0219169083151502179055506108546040518060400160405280601281526020017f54686520626f6f6b20737461747573203d2000000000000000000000000000008152506002600085815260200190815260200160002060009054906101000a900460ff166109e7565b5050565b600560009054906101000a900473ffffffffffffffffffffffffffffffffffffffff1681565b610886610aac565b600073ffffffffffffffffffffffffffffffffffffffff168273ffffffffffffffffffffffffffffffffffffffff1614156108f6576040517f08c379a00000000000000000000000000000000000000000000000000000000081526004016108ed906111fc565b60405180910390fd5b6000805b6000805490508110156109e057600080828154811061091c5761091b610eef565b5b906000526020600020015490508473ffffffffffffffffffffffffffffffffffffffff166001600083815260200190815260200160002060009054906101000a900473ffffffffffffffffffffffffffffffffffffffff1673ffffffffffffffffffffffffffffffffffffffff1614156109cc57808484600a81106109a4576109a3610eef565b5b6020020181815250506001836109ba919061115a565b9250600a8314156109cb57506109e0565b5b5080806109d890610f4d565b9150506108fa565b5050919050565b610a7f82826040516024016109fd9291906112a4565b6040516020818303038152906040527fc3b55635000000000000000000000000000000000000000000000000000000007bffffffffffffffffffffffffffffffffffffffffffffffffffffffff19166020820180517bffffffffffffffffffffffffffffffffffffffffffffffffffffffff8381831617835250505050610a83565b5050565b60008151905060006a636f6e736f6c652e6c6f679050602083016000808483855afa5050505050565b604051806101400160405280600a90602082028036833780820191505090505090565b600080fd5b600073ffffffffffffffffffffffffffffffffffffffff82169050919050565b6000610aff82610ad4565b9050919050565b610b0f81610af4565b8114610b1a57600080fd5b50565b600081359050610b2c81610b06565b92915050565b600060208284031215610b4857610b47610acf565b5b6000610b5684828501610b1d565b91505092915050565b6000819050919050565b610b7281610b5f565b82525050565b6000602082019050610b8d6000830184610b69565b92915050565b6000819050919050565b610ba681610b93565b8114610bb157600080fd5b50565b600081359050610bc381610b9d565b92915050565b600060208284031215610bdf57610bde610acf565b5b6000610bed84828501610bb4565b91505092915050565b60008115159050919050565b610c0b81610bf6565b82525050565b6000602082019050610c266000830184610c02565b92915050565b610c3581610b5f565b8114610c4057600080fd5b50565b600081359050610c5281610c2c565b92915050565b600060208284031215610c6e57610c6d610acf565b5b6000610c7c84828501610c43565b91505092915050565b610c8e81610b93565b82525050565b6000602082019050610ca96000830184610c85565b92915050565b610cb881610af4565b82525050565b6000602082019050610cd36000830184610caf565b92915050565b60008060408385031215610cf057610cef610acf565b5b6000610cfe85828601610bb4565b9250506020610d0f85828601610b1d565b9150509250929050565b6000600a9050919050565b600081905092915050565b6000819050919050565b610d4281610b93565b82525050565b6000610d548383610d39565b60208301905092915050565b6000602082019050919050565b610d7681610d19565b610d808184610d24565b9250610d8b82610d2f565b8060005b83811015610dbc578151610da38782610d48565b9650610dae83610d60565b925050600181019050610d8f565b505050505050565b600061014082019050610dda6000830184610d6d565b92915050565b600082825260208201905092915050565b7f496e746572616374207769746820726f75746572000000000000000000000000600082015250565b6000610e27601483610de0565b9150610e3282610df1565b602082019050919050565b60006020820190508181036000830152610e5681610e1a565b9050919050565b7f426f6f6b206973206e6f742070726573656e7420696e2074686520706c61746660008201527f6f726d0000000000000000000000000000000000000000000000000000000000602082015250565b6000610eb9602383610de0565b9150610ec482610e5d565b604082019050919050565b60006020820190508181036000830152610ee881610eac565b9050919050565b7f4e487b7100000000000000000000000000000000000000000000000000000000600052603260045260246000fd5b7f4e487b7100000000000000000000000000000000000000000000000000000000600052601160045260246000fd5b6000610f5882610b5f565b91507fffffffffffffffffffffffffffffffffffffffffffffffffffffffffffffffff821415610f8b57610f8a610f1e565b5b600182019050919050565b6000610fa182610b5f565b9150610fac83610b5f565b925082821015610fbf57610fbe610f1e565b5b828203905092915050565b7f54686520626f6f6b206973206e6f742075706c6f6164656420746f207468652060008201527f706c6174666f726d000000000000000000000000000000000000000000000000602082015250565b6000611026602883610de0565b915061103182610fca565b604082019050919050565b6000602082019050818103600083015261105581611019565b9050919050565b7f54686520626f6f6b20697320616c726561647920616464656400000000000000600082015250565b6000611092601983610de0565b915061109d8261105c565b602082019050919050565b600060208201905081810360008301526110c181611085565b9050919050565b7f596f75206861766520616c72656164792075706c6f616465642074656e20626f60008201527f6f6b730000000000000000000000000000000000000000000000000000000000602082015250565b6000611124602383610de0565b915061112f826110c8565b604082019050919050565b6000602082019050818103600083015261115381611117565b9050919050565b600061116582610b5f565b915061117083610b5f565b9250827fffffffffffffffffffffffffffffffffffffffffffffffffffffffffffffffff038211156111a5576111a4610f1e565b5b828201905092915050565b7f464f5242494444454e2041444452455353000000000000000000000000000000600082015250565b60006111e6601183610de0565b91506111f1826111b0565b602082019050919050565b60006020820190508181036000830152611215816111d9565b9050919050565b600081519050919050565b60005b8381101561124557808201518184015260208101905061122a565b83811115611254576000848401525b50505050565b6000601f19601f8301169050919050565b60006112768261121c565b6112808185610de0565b9350611290818560208601611227565b6112998161125a565b840191505092915050565b600060408201905081810360008301526112be818561126b565b90506112cd6020830184610c02565b939250505056fea2646970667358221220fe23bc5e98d74d825a037a6fbbfa128bed4cb612cef7ac6b712426bc7179ad5364736f6c63430008090033a26469706673582212208e34e879d036afee91df25e7fd7a3ed09b5deca2b4a32fbdd2cd65b2ebffa71564736f6c6343000809003360806040523480156200001157600080fd5b506040516200143d3803806200143d8339818101604052810190620000379190620000f1565b600a60038190555080600560006101000a81548173ffffffffffffffffffffffffffffffffffffffff021916908373ffffffffffffffffffffffffffffffffffffffff1602179055505062000123565b600080fd5b600073ffffffffffffffffffffffffffffffffffffffff82169050919050565b6000620000b9826200008c565b9050919050565b620000cb81620000ac565b8114620000d757600080fd5b50565b600081519050620000eb81620000c0565b92915050565b6000602082840312156200010a576200010962000087565b5b60006200011a84828501620000da565b91505092915050565b61130a80620001336000396000f3fe608060405234801561001057600080fd5b50600436106100885760003560e01c8063691d1c281161005b578063691d1c28146101395780636b6dda5b146101695780638da5cb5b14610185578063a72877a6146101a357610088565b80631be40c601461008d57806338a699a4146100bd57806363dcd599146100ed5780636874404614610109575b600080fd5b6100a760048036038101906100a29190610b32565b6101d3565b6040516100b49190610b78565b60405180910390f35b6100d760048036038101906100d29190610bc9565b61021c565b6040516100e49190610c11565b60405180910390f35b61010760048036038101906101029190610bc9565b610246565b005b610123600480360381019061011e9190610c58565b6104bc565b6040516101309190610c94565b60405180910390f35b610153600480360381019061014e9190610bc9565b6104e0565b6040516101609190610cbe565b60405180910390f35b610183600480360381019061017e9190610cd9565b61057d565b005b61018d610858565b60405161019a9190610cbe565b60405180910390f35b6101bd60048036038101906101b89190610b32565b61087e565b6040516101ca9190610dc4565b60405180910390f35b6000600460008373ffffffffffffffffffffffffffffffffffffffff1673ffffffffffffffffffffffffffffffffffffffff168152602001908152602001600020549050919050565b60006002600083815260200190815260200160002060009054906101000a900460ff169050919050565b600560009054906101000a900473ffffffffffffffffffffffffffffffffffffffff1673ffffffffffffffffffffffffffffffffffffffff163373ffffffffffffffffffffffffffffffffffffffff16146102d6576040517f08c379a00000000000000000000000000000000000000000000000000000000081526004016102cd90610e3d565b60405180910390fd5b600115156002600083815260200190815260200160002060009054906101000a900460ff1615151461033d576040517f08c379a000000000000000000000000000000000000000000000000000000000815260040161033490610ecf565b60405180910390fd5b60005b6000805490508110156103a957816000828154811061036257610361610eef565b5b90600052602060002001541415610396576000818154811061038757610386610eef565b5b90600052602060002001600090555b80806103a190610f4d565b915050610340565b5060006002600083815260200190815260200160002060006101000a81548160ff02191690831515021790555060006001600083815260200190815260200160002060009054906101000a900473ffffffffffffffffffffffffffffffffffffffff16905060006001600084815260200190815260200160002060006101000a81548173ffffffffffffffffffffffffffffffffffffffff021916908373ffffffffffffffffffffffffffffffffffffffff1602179055506001600460008373ffffffffffffffffffffffffffffffffffffffff1673ffffffffffffffffffffffffffffffffffffffff16815260200190815260200160002060008282546104b19190610f96565b925050819055505050565b600081815481106104cc57600080fd5b906000526020600020016000915090505481565b60006002600083815260200190815260200160002060009054906101000a900460ff16610542576040517f08c379a00000000000000000000000000000000000000000000000000000000081526004016105399061103c565b60405180910390fd5b6001600083815260200190815260200160002060009054906101000a900473ffffffffffffffffffffffffffffffffffffffff169050919050565b600560009054906101000a900473ffffffffffffffffffffffffffffffffffffffff1673ffffffffffffffffffffffffffffffffffffffff163373ffffffffffffffffffffffffffffffffffffffff161461060d576040517f08c379a000000000000000000000000000000000000000000000000000000000815260040161060490610e3d565b60405180910390fd5b600015156002600084815260200190815260200160002060009054906101000a900460ff16151514610674576040517f08c379a000000000000000000000000000000000000000000000000000000000815260040161066b906110a8565b60405180910390fd5b600354600460008373ffffffffffffffffffffffffffffffffffffffff1673ffffffffffffffffffffffffffffffffffffffff16815260200190815260200160002054106106f7576040517f08c379a00000000000000000000000000000000000000000000000000000000081526004016106ee9061113a565b60405180910390fd5b60008290806001815401808255809150506001900390600052602060002001600090919091909150556001600460008373ffffffffffffffffffffffffffffffffffffffff1673ffffffffffffffffffffffffffffffffffffffff1681526020019081526020016000206000828254610770919061115a565b92505081905550806001600084815260200190815260200160002060006101000a81548173ffffffffffffffffffffffffffffffffffffffff021916908373ffffffffffffffffffffffffffffffffffffffff16021790555060016002600084815260200190815260200160002060006101000a81548160ff0219169083151502179055506108546040518060400160405280601281526020017f54686520626f6f6b20737461747573203d2000000000000000000000000000008152506002600085815260200190815260200160002060009054906101000a900460ff166109e7565b5050565b600560009054906101000a900473ffffffffffffffffffffffffffffffffffffffff1681565b610886610aac565b600073ffffffffffffffffffffffffffffffffffffffff168273ffffffffffffffffffffffffffffffffffffffff1614156108f6576040517f08c379a00000000000000000000000000000000000000000000000000000000081526004016108ed906111fc565b60405180910390fd5b6000805b6000805490508110156109e057600080828154811061091c5761091b610eef565b5b906000526020600020015490508473ffffffffffffffffffffffffffffffffffffffff166001600083815260200190815260200160002060009054906101000a900473ffffffffffffffffffffffffffffffffffffffff1673ffffffffffffffffffffffffffffffffffffffff1614156109cc57808484600a81106109a4576109a3610eef565b5b6020020181815250506001836109ba919061115a565b9250600a8314156109cb57506109e0565b5b5080806109d890610f4d565b9150506108fa565b5050919050565b610a7f82826040516024016109fd9291906112a4565b6040516020818303038152906040527fc3b55635000000000000000000000000000000000000000000000000000000007bffffffffffffffffffffffffffffffffffffffffffffffffffffffff19166020820180517bffffffffffffffffffffffffffffffffffffffffffffffffffffffff8381831617835250505050610a83565b5050565b60008151905060006a636f6e736f6c652e6c6f679050602083016000808483855afa5050505050565b604051806101400160405280600a90602082028036833780820191505090505090565b600080fd5b600073ffffffffffffffffffffffffffffffffffffffff82169050919050565b6000610aff82610ad4565b9050919050565b610b0f81610af4565b8114610b1a57600080fd5b50565b600081359050610b2c81610b06565b92915050565b600060208284031215610b4857610b47610acf565b5b6000610b5684828501610b1d565b91505092915050565b6000819050919050565b610b7281610b5f565b82525050565b6000602082019050610b8d6000830184610b69565b92915050565b6000819050919050565b610ba681610b93565b8114610bb157600080fd5b50565b600081359050610bc381610b9d565b92915050565b600060208284031215610bdf57610bde610acf565b5b6000610bed84828501610bb4565b91505092915050565b60008115159050919050565b610c0b81610bf6565b82525050565b6000602082019050610c266000830184610c02565b92915050565b610c3581610b5f565b8114610c4057600080fd5b50565b600081359050610c5281610c2c565b92915050565b600060208284031215610c6e57610c6d610acf565b5b6000610c7c84828501610c43565b91505092915050565b610c8e81610b93565b82525050565b6000602082019050610ca96000830184610c85565b92915050565b610cb881610af4565b82525050565b6000602082019050610cd36000830184610caf565b92915050565b60008060408385031215610cf057610cef610acf565b5b6000610cfe85828601610bb4565b9250506020610d0f85828601610b1d565b9150509250929050565b6000600a9050919050565b600081905092915050565b6000819050919050565b610d4281610b93565b82525050565b6000610d548383610d39565b60208301905092915050565b6000602082019050919050565b610d7681610d19565b610d808184610d24565b9250610d8b82610d2f565b8060005b83811015610dbc578151610da38782610d48565b9650610dae83610d60565b925050600181019050610d8f565b505050505050565b600061014082019050610dda6000830184610d6d565b92915050565b600082825260208201905092915050565b7f496e746572616374207769746820726f75746572000000000000000000000000600082015250565b6000610e27601483610de0565b9150610e3282610df1565b602082019050919050565b60006020820190508181036000830152610e5681610e1a565b9050919050565b7f426f6f6b206973206e6f742070726573656e7420696e2074686520706c61746660008201527f6f726d0000000000000000000000000000000000000000000000000000000000602082015250565b6000610eb9602383610de0565b9150610ec482610e5d565b604082019050919050565b60006020820190508181036000830152610ee881610eac565b9050919050565b7f4e487b7100000000000000000000000000000000000000000000000000000000600052603260045260246000fd5b7f4e487b7100000000000000000000000000000000000000000000000000000000600052601160045260246000fd5b6000610f5882610b5f565b91507fffffffffffffffffffffffffffffffffffffffffffffffffffffffffffffffff821415610f8b57610f8a610f1e565b5b600182019050919050565b6000610fa182610b5f565b9150610fac83610b5f565b925082821015610fbf57610fbe610f1e565b5b828203905092915050565b7f54686520626f6f6b206973206e6f742075706c6f6164656420746f207468652060008201527f706c6174666f726d000000000000000000000000000000000000000000000000602082015250565b6000611026602883610de0565b915061103182610fca565b604082019050919050565b6000602082019050818103600083015261105581611019565b9050919050565b7f54686520626f6f6b20697320616c726561647920616464656400000000000000600082015250565b6000611092601983610de0565b915061109d8261105c565b602082019050919050565b600060208201905081810360008301526110c181611085565b9050919050565b7f596f75206861766520616c72656164792075706c6f616465642074656e20626f60008201527f6f6b730000000000000000000000000000000000000000000000000000000000602082015250565b6000611124602383610de0565b915061112f826110c8565b604082019050919050565b6000602082019050818103600083015261115381611117565b9050919050565b600061116582610b5f565b915061117083610b5f565b9250827fffffffffffffffffffffffffffffffffffffffffffffffffffffffffffffffff038211156111a5576111a4610f1e565b5b828201905092915050565b7f464f5242494444454e2041444452455353000000000000000000000000000000600082015250565b60006111e6601183610de0565b91506111f1826111b0565b602082019050919050565b60006020820190508181036000830152611215816111d9565b9050919050565b600081519050919050565b60005b8381101561124557808201518184015260208101905061122a565b83811115611254576000848401525b50505050565b6000601f19601f8301169050919050565b60006112768261121c565b6112808185610de0565b9350611290818560208601611227565b6112998161125a565b840191505092915050565b600060408201905081810360008301526112be818561126b565b90506112cd6020830184610c02565b939250505056fea2646970667358221220fe23bc5e98d74d825a037a6fbbfa128bed4cb612cef7ac6b712426bc7179ad5364736f6c6343000809003360806040523480156200001157600080fd5b506040516200214d3803806200214d8339818101604052810190620000379190620000e9565b80600460006101000a81548173ffffffffffffffffffffffffffffffffffffffff021916908373ffffffffffffffffffffffffffffffffffffffff160217905550506200011b565b600080fd5b600073ffffffffffffffffffffffffffffffffffffffff82169050919050565b6000620000b18262000084565b9050919050565b620000c381620000a4565b8114620000cf57600080fd5b50565b600081519050620000e381620000b8565b92915050565b6000602082840312156200010257620001016200007f565b5b60006200011284828501620000d2565b91505092915050565b612022806200012b6000396000f3fe608060405234801561001057600080fd5b50600436106100cf5760003560e01c80638da5cb5b1161008c578063b5217bb411610066578063b5217bb41461024a578063c5913f9814610280578063ca78ffa6146102b0578063d942b482146102cc576100cf565b80638da5cb5b146101cc5780639047695c146101ea578063ab5b63a41461021a576100cf565b80632f59123c146100d4578063314cac27146100f05780633ed4faaf14610120578063404ef0141461013c57806360e04e811461016c578063808577231461019c575b600080fd5b6100ee60048036038101906100e991906115bc565b6102e8565b005b61010a6004803603810190610105919061160f565b6105f1565b604051610117919061167d565b60405180910390f35b61013a6004803603810190610135919061160f565b61062d565b005b61015660048036038101906101519190611698565b61073c565b60405161016391906116e7565b60405180910390f35b6101866004803603810190610181919061160f565b6109d2565b604051610193919061167d565b60405180910390f35b6101b660048036038101906101b19190611702565b610a4c565b6040516101c391906116e7565b60405180910390f35b6101d4610acd565b6040516101e1919061173e565b60405180910390f35b61020460048036038101906101ff9190611702565b610af3565b60405161021191906116e7565b60405180910390f35b610234600480360381019061022f919061160f565b610ba0565b604051610241919061167d565b60405180910390f35b610264600480360381019061025f9190611702565b610bdc565b6040516102779796959493929190611759565b60405180910390f35b61029a6004803603810190610295919061160f565b610c4b565b6040516102a7919061167d565b60405180910390f35b6102ca60048036038101906102c59190611698565b610f8b565b005b6102e660048036038101906102e1919061160f565b61119c565b005b600460009054906101000a900473ffffffffffffffffffffffffffffffffffffffff1673ffffffffffffffffffffffffffffffffffffffff163373ffffffffffffffffffffffffffffffffffffffff1614610378576040517f08c379a000000000000000000000000000000000000000000000000000000000815260040161036f90611825565b60405180910390fd5b60008084815260200190815260200160002060060160009054906101000a900460ff166103da576040517f08c379a00000000000000000000000000000000000000000000000000000000081526004016103d190611891565b60405180910390fd5b600080600085815260200190815260200160002090506000816005015490506000151560016000878152602001908152602001600020600083815260200190815260200160002060008673ffffffffffffffffffffffffffffffffffffffff1673ffffffffffffffffffffffffffffffffffffffff16815260200190815260200160002060009054906101000a900460ff161515146104ae576040517f08c379a00000000000000000000000000000000000000000000000000000000081526004016104a5906118fd565b60405180910390fd5b60006104b98661133e565b9050808410156104fe576040517f08c379a00000000000000000000000000000000000000000000000000000000081526004016104f590611969565b60405180910390fd5b6001806000888152602001908152602001600020600084815260200190815260200160002060008773ffffffffffffffffffffffffffffffffffffffff1673ffffffffffffffffffffffffffffffffffffffff16815260200190815260200160002060006101000a81548160ff021916908315150217905550826002015483600301600082825461058f91906119b8565b925050819055508260040154836003015414156105cd576000836003018190555060018360050160008282546105c591906119b8565b925050819055505b60018360010160008282546105e291906119b8565b92505081905550505050505050565b6002602052826000526040600020602052816000526040600020602052806000526040600020600092509250509054906101000a900460ff1681565b600460009054906101000a900473ffffffffffffffffffffffffffffffffffffffff1673ffffffffffffffffffffffffffffffffffffffff163373ffffffffffffffffffffffffffffffffffffffff16146106bd576040517f08c379a00000000000000000000000000000000000000000000000000000000081526004016106b490611825565b60405180910390fd5b600160036000858152602001908152602001600020600084815260200190815260200160002060008373ffffffffffffffffffffffffffffffffffffffff1673ffffffffffffffffffffffffffffffffffffffff16815260200190815260200160002060006101000a81548160ff021916908315150217905550505050565b6000600460009054906101000a900473ffffffffffffffffffffffffffffffffffffffff1673ffffffffffffffffffffffffffffffffffffffff163373ffffffffffffffffffffffffffffffffffffffff16146107ce576040517f08c379a00000000000000000000000000000000000000000000000000000000081526004016107c590611825565b60405180910390fd5b60008084815260200190815260200160002060060160009054906101000a900460ff16610830576040517f08c379a000000000000000000000000000000000000000000000000000000000815260040161082790611a5a565b60405180910390fd5b600080600085815260200190815260200160002060050154905060016000858152602001908152602001600020600082815260200190815260200160002060008473ffffffffffffffffffffffffffffffffffffffff1673ffffffffffffffffffffffffffffffffffffffff16815260200190815260200160002060009054906101000a900460ff166108f8576040517f08c379a00000000000000000000000000000000000000000000000000000000081526004016108ef90611ac6565b60405180910390fd5b6000806000868152602001908152602001600020905080600201548160030160008282546109269190611ae6565b9250508190555060018160010160008282546109429190611ae6565b92505081905550600060016000878152602001908152602001600020600084815260200190815260200160002060008673ffffffffffffffffffffffffffffffffffffffff1673ffffffffffffffffffffffffffffffffffffffff16815260200190815260200160002060006101000a81548160ff02191690831515021790555080600201549250505092915050565b600060036000858152602001908152602001600020600084815260200190815260200160002060008373ffffffffffffffffffffffffffffffffffffffff1673ffffffffffffffffffffffffffffffffffffffff16815260200190815260200160002060009054906101000a900460ff1690509392505050565b600080600083815260200190815260200160002060060160009054906101000a900460ff16610ab0576040517f08c379a0000000000000000000000000000000000000000000000000000000008152600401610aa790611b66565b60405180910390fd5b600080838152602001908152602001600020600501549050919050565b600460009054906101000a900473ffffffffffffffffffffffffffffffffffffffff1681565b600080600083815260200190815260200160002060060160009054906101000a900460ff16610b57576040517f08c379a0000000000000000000000000000000000000000000000000000000008152600401610b4e90611b66565b60405180910390fd5b6000806000848152602001908152602001600020600401549050610b986064610b8a605f846113fa90919063ffffffff16565b61146790919063ffffffff16565b915050919050565b6003602052826000526040600020602052816000526040600020602052806000526040600020600092509250509054906101000a900460ff1681565b60006020528060005260406000206000915090508060000160009054906101000a900473ffffffffffffffffffffffffffffffffffffffff16908060010154908060020154908060030154908060040154908060050154908060060160009054906101000a900460ff16905087565b6000600460009054906101000a900473ffffffffffffffffffffffffffffffffffffffff1673ffffffffffffffffffffffffffffffffffffffff163373ffffffffffffffffffffffffffffffffffffffff1614610cdd576040517f08c379a0000000000000000000000000000000000000000000000000000000008152600401610cd490611825565b60405180910390fd5b60008085815260200190815260200160002060060160009054906101000a900460ff16610d3f576040517f08c379a0000000000000000000000000000000000000000000000000000000008152600401610d3690611891565b60405180910390fd5b6000806000868152602001908152602001600020600501549050808410610d9b576040517f08c379a0000000000000000000000000000000000000000000000000000000008152600401610d9290611bf8565b60405180910390fd5b6001151560016000878152602001908152602001600020600086815260200190815260200160002060008573ffffffffffffffffffffffffffffffffffffffff1673ffffffffffffffffffffffffffffffffffffffff16815260200190815260200160002060009054906101000a900460ff16151514610e50576040517f08c379a0000000000000000000000000000000000000000000000000000000008152600401610e4790611c8a565b60405180910390fd5b6000151560026000878152602001908152602001600020600086815260200190815260200160002060008573ffffffffffffffffffffffffffffffffffffffff1673ffffffffffffffffffffffffffffffffffffffff16815260200190815260200160002060009054906101000a900460ff16151514610f05576040517f08c379a0000000000000000000000000000000000000000000000000000000008152600401610efc90611cf6565b60405180910390fd5b600160026000878152602001908152602001600020600086815260200190815260200160002060008573ffffffffffffffffffffffffffffffffffffffff1673ffffffffffffffffffffffffffffffffffffffff16815260200190815260200160002060006101000a81548160ff02191690831515021790555060019150509392505050565b600460009054906101000a900473ffffffffffffffffffffffffffffffffffffffff1673ffffffffffffffffffffffffffffffffffffffff163373ffffffffffffffffffffffffffffffffffffffff161461101b576040517f08c379a000000000000000000000000000000000000000000000000000000000815260040161101290611d62565b60405180910390fd5b60008083815260200190815260200160002060060160009054906101000a900460ff1661107d576040517f08c379a000000000000000000000000000000000000000000000000000000000815260040161107490611a5a565b60405180910390fd5b8073ffffffffffffffffffffffffffffffffffffffff1660008084815260200190815260200160002060000160009054906101000a900473ffffffffffffffffffffffffffffffffffffffff1673ffffffffffffffffffffffffffffffffffffffff1614611120576040517f08c379a000000000000000000000000000000000000000000000000000000000815260040161111790611dce565b60405180910390fd5b600080838152602001908152602001600020600080820160006101000a81549073ffffffffffffffffffffffffffffffffffffffff0219169055600182016000905560028201600090556003820160009055600482016000905560058201600090556006820160006101000a81549060ff021916905550505050565b600460009054906101000a900473ffffffffffffffffffffffffffffffffffffffff1673ffffffffffffffffffffffffffffffffffffffff163373ffffffffffffffffffffffffffffffffffffffff161461122c576040517f08c379a000000000000000000000000000000000000000000000000000000000815260040161122390611825565b60405180910390fd5b60008084815260200190815260200160002060060160009054906101000a900460ff161561128f576040517f08c379a000000000000000000000000000000000000000000000000000000000815260040161128690611e3a565b60405180910390fd5b60008060008581526020019081526020016000209050818160000160006101000a81548173ffffffffffffffffffffffffffffffffffffffff021916908373ffffffffffffffffffffffffffffffffffffffff1602179055508281600401819055506113096004826004015461146790919063ffffffff16565b816002018190555060018160060160006101000a81548160ff0219169083151502179055506001816005018190555050505050565b600080600083815260200190815260200160002060060160009054906101000a900460ff166113a2576040517f08c379a000000000000000000000000000000000000000000000000000000000815260040161139990611a5a565b60405180910390fd5b6000806000848152602001908152602001600020905060006113d58260030154836004015461149490919063ffffffff16565b905081600201548110156113eb578092506113f3565b816002015492505b5050919050565b6000808214806114225750828283856114139190611e5a565b9250826114209190611ee3565b145b611461576040517f08c379a000000000000000000000000000000000000000000000000000000000815260040161145890611f60565b60405180910390fd5b92915050565b60008082141561147a576000905061148e565b81838161148a57611489611eb4565b5b0490505b92915050565b60008282846114a39190611ae6565b91508111156114e7576040517f08c379a00000000000000000000000000000000000000000000000000000000081526004016114de90611fcc565b60405180910390fd5b92915050565b600080fd5b6000819050919050565b611505816114f2565b811461151057600080fd5b50565b600081359050611522816114fc565b92915050565b600073ffffffffffffffffffffffffffffffffffffffff82169050919050565b600061155382611528565b9050919050565b61156381611548565b811461156e57600080fd5b50565b6000813590506115808161155a565b92915050565b6000819050919050565b61159981611586565b81146115a457600080fd5b50565b6000813590506115b681611590565b92915050565b6000806000606084860312156115d5576115d46114ed565b5b60006115e386828701611513565b93505060206115f486828701611571565b9250506040611605868287016115a7565b9150509250925092565b600080600060608486031215611628576116276114ed565b5b600061163686828701611513565b9350506020611647868287016115a7565b925050604061165886828701611571565b9150509250925092565b60008115159050919050565b61167781611662565b82525050565b6000602082019050611692600083018461166e565b92915050565b600080604083850312156116af576116ae6114ed565b5b60006116bd85828601611513565b92505060206116ce85828601611571565b9150509250929050565b6116e181611586565b82525050565b60006020820190506116fc60008301846116d8565b92915050565b600060208284031215611718576117176114ed565b5b600061172684828501611513565b91505092915050565b61173881611548565b82525050565b6000602082019050611753600083018461172f565b92915050565b600060e08201905061176e600083018a61172f565b61177b60208301896116d8565b61178860408301886116d8565b61179560608301876116d8565b6117a260808301866116d8565b6117af60a08301856116d8565b6117bc60c083018461166e565b98975050505050505050565b600082825260208201905092915050565b7f496e746572616374207769746820726f75746572000000000000000000000000600082015250565b600061180f6014836117c8565b915061181a826117d9565b602082019050919050565b6000602082019050818103600083015261183e81611802565b9050919050565b7f506f6f6c206973206e6f74206372656174656400000000000000000000000000600082015250565b600061187b6013836117c8565b915061188682611845565b602082019050919050565b600060208201905081810360008301526118aa8161186e565b9050919050565b7f596f752061726520616c7265616479206120636f6e7472696275746f72000000600082015250565b60006118e7601d836117c8565b91506118f2826118b1565b602082019050919050565b60006020820190508181036000830152611916816118da565b9050919050565b7f496e73756666696369656e7420636f6e747269627574696f6e00000000000000600082015250565b60006119536019836117c8565b915061195e8261191d565b602082019050919050565b6000602082019050818103600083015261198281611946565b9050919050565b7f4e487b7100000000000000000000000000000000000000000000000000000000600052601160045260246000fd5b60006119c382611586565b91506119ce83611586565b9250827fffffffffffffffffffffffffffffffffffffffffffffffffffffffffffffffff03821115611a0357611a02611989565b5b828201905092915050565b7f506f6f6c20646f6573206e6f7420657869737473000000000000000000000000600082015250565b6000611a446014836117c8565b9150611a4f82611a0e565b602082019050919050565b60006020820190508181036000830152611a7381611a37565b9050919050565b7f596f7520617265206e6f74206120636f6e7472696275746f7200000000000000600082015250565b6000611ab06019836117c8565b9150611abb82611a7a565b602082019050919050565b60006020820190508181036000830152611adf81611aa3565b9050919050565b6000611af182611586565b9150611afc83611586565b925082821015611b0f57611b0e611989565b5b828203905092915050565b7f54686520706f6f6c20646f6573206e6f74206578697374730000000000000000600082015250565b6000611b506018836117c8565b9150611b5b82611b1a565b602082019050919050565b60006020820190508181036000830152611b7f81611b43565b9050919050565b7f52656465656d207068617365206d757374206265206c657373207468616e207460008201527f68652063757272656e7420706861736500000000000000000000000000000000602082015250565b6000611be26030836117c8565b9150611bed82611b86565b604082019050919050565b60006020820190508181036000830152611c1181611bd5565b9050919050565b7f596f752068617665206e6f7420636f6e747269627574656420746f207468617460008201527f2070686173650000000000000000000000000000000000000000000000000000602082015250565b6000611c746026836117c8565b9150611c7f82611c18565b604082019050919050565b60006020820190508181036000830152611ca381611c67565b9050919050565b7f596f75206861766520616c72656164792072656465656d656400000000000000600082015250565b6000611ce06019836117c8565b9150611ceb82611caa565b602082019050919050565b60006020820190508181036000830152611d0f81611cd3565b9050919050565b7f496e7465726163742077697468206f776e657200000000000000000000000000600082015250565b6000611d4c6013836117c8565b9150611d5782611d16565b602082019050919050565b60006020820190508181036000830152611d7b81611d3f565b9050919050565b7f596f7520617265206e6f7420617574686f72206f66207468697320626f6f6b00600082015250565b6000611db8601f836117c8565b9150611dc382611d82565b602082019050919050565b60006020820190508181036000830152611de781611dab565b9050919050565b7f54686520706f6f6c20697320616c726561647920637265617465640000000000600082015250565b6000611e24601b836117c8565b9150611e2f82611dee565b602082019050919050565b60006020820190508181036000830152611e5381611e17565b9050919050565b6000611e6582611586565b9150611e7083611586565b9250817fffffffffffffffffffffffffffffffffffffffffffffffffffffffffffffffff0483118215151615611ea957611ea8611989565b5b828202905092915050565b7f4e487b7100000000000000000000000000000000000000000000000000000000600052601260045260246000fd5b6000611eee82611586565b9150611ef983611586565b925082611f0957611f08611eb4565b5b828204905092915050565b7f64732d6d6174682d6d756c2d6f766572666c6f77000000000000000000000000600082015250565b6000611f4a6014836117c8565b9150611f5582611f14565b602082019050919050565b60006020820190508181036000830152611f7981611f3d565b9050919050565b7f64732d6d6174682d7375622d756e646572666c6f770000000000000000000000600082015250565b6000611fb66015836117c8565b9150611fc182611f80565b602082019050919050565b60006020820190508181036000830152611fe581611fa9565b905091905056fea2646970667358221220ddc2a3e0b6f92c432ac1e984a41cf500825a634a2a29aa520a93171c2dc1480364736f6c63430008090033",
  "devdoc": {
    "kind": "dev",
    "methods": {},
    "version": 1
  },
  "userdoc": {
    "kind": "user",
    "methods": {},
    "version": 1
  },
  "storageLayout": {
    "storage": [
      {
        "astId": 892,
        "contract": "contracts/Router.sol:Router",
        "label": "book",
        "offset": 0,
        "slot": "0",
        "type": "t_address"
      },
      {
        "astId": 894,
        "contract": "contracts/Router.sol:Router",
        "label": "pay",
        "offset": 0,
        "slot": "1",
        "type": "t_address"
      },
      {
        "astId": 896,
        "contract": "contracts/Router.sol:Router",
        "label": "token",
        "offset": 0,
        "slot": "2",
        "type": "t_address"
      },
      {
        "astId": 898,
        "contract": "contracts/Router.sol:Router",
        "label": "owner",
        "offset": 0,
        "slot": "3",
        "type": "t_address"
      }
    ],
    "types": {
      "t_address": {
        "encoding": "inplace",
        "label": "address",
        "numberOfBytes": "20"
      }
    }
  }
}